{
  "contractName": "AuraFactory",
  "abi": [
    {
      "inputs": [
        {
          "internalType": "address",
          "name": "_feeToSetter",
          "type": "address"
        }
      ],
      "stateMutability": "nonpayable",
      "type": "constructor"
    },
    {
      "anonymous": false,
      "inputs": [
        {
          "indexed": true,
          "internalType": "address",
          "name": "token0",
          "type": "address"
        },
        {
          "indexed": true,
          "internalType": "address",
          "name": "token1",
          "type": "address"
        },
        {
          "indexed": false,
          "internalType": "address",
          "name": "pair",
          "type": "address"
        },
        {
          "indexed": false,
          "internalType": "uint256",
          "name": "",
          "type": "uint256"
        }
      ],
      "name": "PairCreated",
      "type": "event"
    },
    {
      "inputs": [],
      "name": "INIT_CODE_HASH",
      "outputs": [
        {
          "internalType": "bytes32",
          "name": "",
          "type": "bytes32"
        }
      ],
      "stateMutability": "view",
      "type": "function"
    },
    {
      "inputs": [
        {
          "internalType": "uint256",
          "name": "",
          "type": "uint256"
        }
      ],
      "name": "allPairs",
      "outputs": [
        {
          "internalType": "address",
          "name": "",
          "type": "address"
        }
      ],
      "stateMutability": "view",
      "type": "function"
    },
    {
      "inputs": [],
      "name": "feeTo",
      "outputs": [
        {
          "internalType": "address",
          "name": "",
          "type": "address"
        }
      ],
      "stateMutability": "view",
      "type": "function"
    },
    {
      "inputs": [],
      "name": "feeToSetter",
      "outputs": [
        {
          "internalType": "address",
          "name": "",
          "type": "address"
        }
      ],
      "stateMutability": "view",
      "type": "function"
    },
    {
      "inputs": [
        {
          "internalType": "address",
          "name": "",
          "type": "address"
        },
        {
          "internalType": "address",
          "name": "",
          "type": "address"
        }
      ],
      "name": "getPair",
      "outputs": [
        {
          "internalType": "address",
          "name": "",
          "type": "address"
        }
      ],
      "stateMutability": "view",
      "type": "function"
    },
    {
      "inputs": [],
      "name": "allPairsLength",
      "outputs": [
        {
          "internalType": "uint256",
          "name": "",
          "type": "uint256"
        }
      ],
      "stateMutability": "view",
      "type": "function"
    },
    {
      "inputs": [
        {
          "internalType": "address",
          "name": "tokenA",
          "type": "address"
        },
        {
          "internalType": "address",
          "name": "tokenB",
          "type": "address"
        }
      ],
      "name": "createPair",
      "outputs": [
        {
          "internalType": "address",
          "name": "pair",
          "type": "address"
        }
      ],
      "stateMutability": "nonpayable",
      "type": "function"
    },
    {
      "inputs": [
        {
          "internalType": "address",
          "name": "_feeTo",
          "type": "address"
        }
      ],
      "name": "setFeeTo",
      "outputs": [],
      "stateMutability": "nonpayable",
      "type": "function"
    },
    {
      "inputs": [
        {
          "internalType": "address",
          "name": "_feeToSetter",
          "type": "address"
        }
      ],
      "name": "setFeeToSetter",
      "outputs": [],
      "stateMutability": "nonpayable",
      "type": "function"
    },
    {
      "inputs": [
        {
          "internalType": "address",
          "name": "_pair",
          "type": "address"
        },
        {
          "internalType": "uint8",
          "name": "_devFee",
          "type": "uint8"
        }
      ],
      "name": "setDevFee",
      "outputs": [],
      "stateMutability": "nonpayable",
      "type": "function"
    },
    {
      "inputs": [
        {
          "internalType": "address",
          "name": "_pair",
          "type": "address"
        },
        {
          "internalType": "uint32",
          "name": "_swapFee",
          "type": "uint32"
        }
      ],
      "name": "setSwapFee",
      "outputs": [],
      "stateMutability": "nonpayable",
      "type": "function"
    }
  ],
  "bytecode": "0x6080604081905261001060a061009b565b601f1982820381018352601f90910116604081905261003291906020016100a8565b6040516020818303038152906040528051906020012060025534801561005757600080fd5b50604051615c02380380615c02833981016040819052610076916100e3565b600180546001600160a01b0319166001600160a01b0392909216919091179055610113565b61293c806132c683390190565b6000825160005b818110156100c957602081860181015185830152016100af565b818111156100d8576000828501525b509190910192915050565b6000602082840312156100f557600080fd5b81516001600160a01b038116811461010c57600080fd5b9392505050565b6131a4806101226000396000f3fe60806040523480156200001157600080fd5b5060043610620000b75760003560e01c80639e68ceb8116200007a5780639e68ceb8146200013a578063a2e74af61462000153578063c9c65396146200016a578063e6a439051462000181578063ef0bc99314620001b8578063f46901ed14620001cf57600080fd5b8063017e7e5814620000bc578063094b741514620000ed5780631e3dd18b1462000101578063257671f51462000118578063574f2ba31462000131575b600080fd5b600054620000d0906001600160a01b031681565b6040516001600160a01b0390911681526020015b60405180910390f35b600154620000d0906001600160a01b031681565b620000d062000112366004620006fb565b620001e6565b6200012260025481565b604051908152602001620000e4565b60045462000122565b620001516200014b36600462000732565b62000211565b005b620001516200016436600462000776565b620002ad565b620000d06200017b3660046200079b565b620002fc565b620000d0620001923660046200079b565b60036020908152600092835260408084209091529082529020546001600160a01b031681565b62000151620001c9366004620007d3565b620005f7565b62000151620001e036600462000776565b6200069e565b60048181548110620001f757600080fd5b6000918252602090912001546001600160a01b0316905081565b6001546001600160a01b03163314620002475760405162461bcd60e51b81526004016200023e9062000809565b60405180910390fd5b60405163d6d788c360e01b815263ffffffff821660048201526001600160a01b0383169063d6d788c3906024015b600060405180830381600087803b1580156200029057600080fd5b505af1158015620002a5573d6000803e3d6000fd5b505050505050565b6001546001600160a01b03163314620002da5760405162461bcd60e51b81526004016200023e9062000809565b600180546001600160a01b0319166001600160a01b0392909216919091179055565b6000816001600160a01b0316836001600160a01b03161415620003625760405162461bcd60e51b815260206004820152601960248201527f417572613a204944454e544943414c5f4144445245535345530000000000000060448201526064016200023e565b600080836001600160a01b0316856001600160a01b031610620003875783856200038a565b84845b90925090506001600160a01b038216620003dc5760405162461bcd60e51b8152602060048201526012602482015271417572613a205a45524f5f4144445245535360701b60448201526064016200023e565b6001600160a01b03828116600090815260036020908152604080832085851684529091529020541615620004475760405162461bcd60e51b8152602060048201526011602482015270417572613a20504149525f45584953545360781b60448201526064016200023e565b6000604051806020016200045b90620006ed565b601f1982820381018352601f9091011660408190526bffffffffffffffffffffffff19606086811b8216602084015285901b166034820152909150600090604801604051602081830303815290604052805190602001209050808251602084016000f560405163485cc95560e01b81526001600160a01b03868116600483015285811660248301529196509086169063485cc95590604401600060405180830381600087803b1580156200050e57600080fd5b505af115801562000523573d6000803e3d6000fd5b505050506001600160a01b0384811660008181526003602081815260408084208987168086529083528185208054978d166001600160a01b031998891681179091559383528185208686528352818520805488168517905560048054600181018255958190527f8a35acfbc15ff81a39ae7d344fd709f28e8600b4aa8c65c6b64bfe7fe36bd19b9095018054909716841790965592548351928352908201527f0d3648bd0f6ba80134a33ba9275ac585d9d315f0ad8355cddefde31afa28d0e9910160405180910390a35050505092915050565b6001546001600160a01b03163314620006245760405162461bcd60e51b81526004016200023e9062000809565b60008160ff16116200066f5760405162461bcd60e51b8152602060048201526013602482015272417572613a20464f5242494444454e5f46454560681b60448201526064016200023e565b604051623c150b60e41b815260ff821660048201526001600160a01b038316906303c150b09060240162000275565b6001546001600160a01b03163314620006cb5760405162461bcd60e51b81526004016200023e9062000809565b600080546001600160a01b0319166001600160a01b0392909216919091179055565b61293c806200083383390190565b6000602082840312156200070e57600080fd5b5035919050565b80356001600160a01b03811681146200072d57600080fd5b919050565b600080604083850312156200074657600080fd5b620007518362000715565b9150602083013563ffffffff811681146200076b57600080fd5b809150509250929050565b6000602082840312156200078957600080fd5b620007948262000715565b9392505050565b60008060408385031215620007af57600080fd5b620007ba8362000715565b9150620007ca6020840162000715565b90509250929050565b60008060408385031215620007e757600080fd5b620007f28362000715565b9150602083013560ff811681146200076b57600080fd5b6020808252600f908201526e20bab9309d102327a92124a22222a760891b60408201526060019056fe60e06040526001600655600e80546001600160401b0319166405000000021790553480156200002d57600080fd5b50604080518082018252600881526741757261204c507360c01b6020808301918252835180850190945260078452660415552412d4c560cc1b90840152815191929160129162000081916000919062000167565b5081516200009790600190602085019062000167565b5060ff81166080524660a052620000ad620000cb565b60c0525050600780546001600160a01b0319163317905550620002ee565b60007f8b73c3c69bb8fe3d512ecc4cf759cc79239f7b179b0ffacaa9a75d522b39400f6000604051620000ff91906200024a565b6040805191829003822060208301939093528101919091527fc89efdaa54c0f20c7adf612882df0950f5a951637e0307cdcb4c672f298b8bc660608201524660808201523060a082015260c00160405160208183030381529060405280519060200120905090565b82805462000175906200020d565b90600052602060002090601f016020900481019282620001995760008555620001e4565b82601f10620001b457805160ff1916838001178555620001e4565b82800160010185558215620001e4579182015b82811115620001e4578251825591602001919060010190620001c7565b50620001f2929150620001f6565b5090565b5b80821115620001f25760008155600101620001f7565b600181811c908216806200022257607f821691505b602082108114156200024457634e487b7160e01b600052602260045260246000fd5b50919050565b600080835481600182811c9150808316806200026757607f831692505b60208084108214156200028857634e487b7160e01b86526022600452602486fd5b8180156200029f5760018114620002b157620002e0565b60ff19861689528489019650620002e0565b60008a81526020902060005b86811015620002d85781548b820152908501908301620002bd565b505084890196505b509498975050505050505050565b60805160a05160c05161261e6200031e6000396000610d5901526000610d2401526000610313015261261e6000f3fe608060405234801561001057600080fd5b50600436106101f05760003560e01c80636827e7641161010f578063ba9a7a56116100a2578063d505accf11610071578063d505accf146104b8578063d6d788c3146104cb578063dd62ed3e146104de578063fff6cae91461050957600080fd5b8063ba9a7a5614610476578063bc25cf771461047f578063c45a015514610492578063d21220a7146104a557600080fd5b80637ecebe00116100de5780637ecebe001461041357806389afcb441461043357806395d89b411461045b578063a9059cbb1461046357600080fd5b80636827e764146103bf5780636a627842146103d757806370a08231146103ea5780637464fc3d1461040a57600080fd5b806330adf81f1161018757806354cf2aeb1161015657806354cf2aeb146103625780635909c0d5146103875780635a3d5493146103905780635e07a0991461039957600080fd5b806330adf81f146102e7578063313ce5671461030e5780633644e51514610347578063485cc9551461034f57600080fd5b8063095ea7b3116101c3578063095ea7b31461026f5780630dfe16811461029257806318160ddd146102bd57806323b872dd146102d457600080fd5b8063022c0d9f146101f557806303c150b01461020a57806306fdde031461021d5780630902f1ac1461023b575b600080fd5b61020861020336600461209e565b610511565b005b610208610218366004612134565b610a03565b610225610b1c565b604051610232919061218a565b60405180910390f35b610243610baa565b604080516001600160701b03948516815293909216602084015263ffffffff1690820152606001610232565b61028261027d3660046121bd565b610bd4565b6040519015158152602001610232565b6008546102a5906001600160a01b031681565b6040516001600160a01b039091168152602001610232565b6102c660025481565b604051908152602001610232565b6102826102e23660046121e9565b610c40565b6102c67f6e71edae12b1b97f4d1f60370fef10105fa2faae0126114a169c64845d6126c981565b6103357f000000000000000000000000000000000000000000000000000000000000000081565b60405160ff9091168152602001610232565b6102c6610d20565b61020861035d36600461222a565b610d7b565b600e546103729063ffffffff1681565b60405163ffffffff9091168152602001610232565b6102c6600b5481565b6102c6600c5481565b6103a76001600160701b0381565b6040516001600160701b039091168152602001610232565b600e5461037290640100000000900463ffffffff1681565b6102c66103e5366004612263565b610df4565b6102c66103f8366004612263565b60036020526000908152604090205481565b6102c6600d5481565b6102c6610421366004612263565b60056020526000908152604090205481565b610446610441366004612263565b6110b9565b60408051928352602083019190915201610232565b610225611418565b6102826104713660046121bd565b611425565b6102c66103e881565b61020861048d366004612263565b61148b565b6007546102a5906001600160a01b031681565b6009546102a5906001600160a01b031681565b6102086104c6366004612280565b61159e565b6102086104d9366004612134565b6117ef565b6102c66104ec36600461222a565b600460209081526000928352604080842090915290825290205481565b6102086118fc565b60065460011461053c5760405162461bcd60e51b8152600401610533906122f7565b60405180910390fd5b60026006558415158061054f5750600084115b61059b5760405162461bcd60e51b815260206004820152601f60248201527f4175726120494e53554646494349454e545f4f55545055545f414d4f554e54006044820152606401610533565b6000806105a6610baa565b5091509150816001600160701b0316871080156105cb5750806001600160701b031686105b6106175760405162461bcd60e51b815260206004820152601b60248201527f4175726120494e53554646494349454e545f4c495155494449545900000000006044820152606401610533565b60085460095460009182916001600160a01b039182169190811690891682148015906106555750806001600160a01b0316896001600160a01b031614155b6106935760405162461bcd60e51b815260206004820152600f60248201526e4175726120494e56414c49445f544f60881b6044820152606401610533565b8a156106a4576106a4828a8d611a20565b89156106b5576106b5818a8c611a20565b8615610722576040516329b6c68560e21b81526001600160a01b038a169063a6db1a14906106ef9033908f908f908e908e9060040161231b565b600060405180830381600087803b15801561070957600080fd5b505af115801561071d573d6000803e3d6000fd5b505050505b6040516370a0823160e01b81523060048201526001600160a01b038316906370a0823190602401602060405180830381865afa158015610766573d6000803e3d6000fd5b505050506040513d601f19601f8201168201806040525081019061078a9190612367565b6040516370a0823160e01b81523060048201529094506001600160a01b038216906370a0823190602401602060405180830381865afa1580156107d1573d6000803e3d6000fd5b505050506040513d601f19601f820116820180604052508101906107f59190612367565b92505050600089856001600160701b03166108109190612396565b831161081d57600061083a565b6108308a6001600160701b038716612396565b61083a9084612396565b905060006108518a6001600160701b038716612396565b831161085e57600061087b565b6108718a6001600160701b038716612396565b61087b9084612396565b9050600082118061088c5750600081115b6108d85760405162461bcd60e51b815260206004820152601e60248201527f4175726120494e53554646494349454e545f494e5055545f414d4f554e5400006044820152606401610533565b600e5463ffffffff1660006108ed82856123ad565b6108f9876103e86123ad565b6109039190612396565b9050600061091183856123ad565b61091d876103e86123ad565b6109279190612396565b905061093f6001600160701b03808a16908b166123ad565b61094c90620f42406123ad565b61095682846123ad565b101561098d5760405162461bcd60e51b815260206004820152600660248201526541757261204b60d01b6044820152606401610533565b50505061099c84848888611b3b565b60408051838152602081018390529081018c9052606081018b90526001600160a01b038a169033907fd78ad95fa46c994b6551d0da85fc275fe613ce37657fb8d5e3d130840159d8229060800160405180910390a350506001600655505050505050505050565b60008163ffffffff1611610a525760405162461bcd60e51b8152602060048201526016602482015275041757261506169723a206c6f776572207468656e20360541b6044820152606401610533565b6007546001600160a01b03163314610aa25760405162461bcd60e51b815260206004820152601360248201527220bab930a830b4b91d102327a92124a22222a760691b6044820152606401610533565b6101f48163ffffffff161115610af45760405162461bcd60e51b815260206004820152601760248201527641757261506169723a20464f5242494444454e5f46454560481b6044820152606401610533565b600e805463ffffffff9092166401000000000267ffffffff0000000019909216919091179055565b60008054610b29906123cc565b80601f0160208091040260200160405190810160405280929190818152602001828054610b55906123cc565b8015610ba25780601f10610b7757610100808354040283529160200191610ba2565b820191906000526020600020905b815481529060010190602001808311610b8557829003601f168201915b505050505081565b600a546001600160701b0380821692600160701b830490911691600160e01b900463ffffffff1690565b3360008181526004602090815260408083206001600160a01b038716808552925280832085905551919290917f8c5be1e5ebec7d5bd14f71427d1e84f3dd0314c0f7b2291e5b200ac8c7c3b92590610c2f9086815260200190565b60405180910390a350600192915050565b6001600160a01b03831660009081526004602090815260408083203384529091528120546000198114610c9c57610c778382612396565b6001600160a01b03861660009081526004602090815260408083203384529091529020555b6001600160a01b03851660009081526003602052604081208054859290610cc4908490612396565b90915550506001600160a01b03808516600081815260036020526040908190208054870190555190918716906000805160206125c983398151915290610d0d9087815260200190565b60405180910390a3506001949350505050565b60007f00000000000000000000000000000000000000000000000000000000000000004614610d5657610d51611d22565b905090565b507f000000000000000000000000000000000000000000000000000000000000000090565b6007546001600160a01b03163314610dc65760405162461bcd60e51b815260206004820152600e60248201526d20bab930902327a92124a22222a760911b6044820152606401610533565b600880546001600160a01b039384166001600160a01b03199182161790915560098054929093169116179055565b6000600654600114610e185760405162461bcd60e51b8152600401610533906122f7565b6002600655600080610e28610baa565b506008546040516370a0823160e01b81523060048201529294509092506000916001600160a01b03909116906370a0823190602401602060405180830381865afa158015610e7a573d6000803e3d6000fd5b505050506040513d601f19601f82011682018060405250810190610e9e9190612367565b6009546040516370a0823160e01b81523060048201529192506000916001600160a01b03909116906370a0823190602401602060405180830381865afa158015610eec573d6000803e3d6000fd5b505050506040513d601f19601f82011682018060405250810190610f109190612367565b90506000610f276001600160701b03861684612396565b90506000610f3e6001600160701b03861684612396565b90506000610f4c8787611dbc565b60025490915080610f8a576103e8610f6c610f6785876123ad565b611f0e565b610f769190612396565b9850610f8560006103e8611f7e565b610fd1565b610fce6001600160701b038916610fa183876123ad565b610fab9190612417565b6001600160701b038916610fbf84876123ad565b610fc99190612417565b611fd8565b98505b6000891161102c5760405162461bcd60e51b815260206004820152602260248201527f4175726120494e53554646494349454e545f4c49515549444954595f4d494e54604482015261115160f21b6064820152608401610533565b6110368a8a611f7e565b61104286868a8a611b3b565b811561106b57600a54611067906001600160701b03600160701b8204811691166123ad565b600d555b604080518581526020810185905233917f4c209b5fc8ad50758f13e2e1088ba56a560dff690a1c6fef26394f4c03821c4f910160405180910390a25050600160065550949695505050505050565b6000806006546001146110de5760405162461bcd60e51b8152600401610533906122f7565b60026006556000806110ee610baa565b506008546009546040516370a0823160e01b81523060048201529395509193506001600160a01b039081169291169060009083906370a0823190602401602060405180830381865afa158015611148573d6000803e3d6000fd5b505050506040513d601f19601f8201168201806040525081019061116c9190612367565b6040516370a0823160e01b81523060048201529091506000906001600160a01b038416906370a0823190602401602060405180830381865afa1580156111b6573d6000803e3d6000fd5b505050506040513d601f19601f820116820180604052508101906111da9190612367565b306000908152600360205260408120549192506111f78888611dbc565b6002549091508061120886856123ad565b6112129190612417565b9a508061121f85856123ad565b6112299190612417565b995060008b11801561123b575060008a115b6112925760405162461bcd60e51b815260206004820152602260248201527f4175726120494e53554646494349454e545f4c49515549444954595f4255524e604482015261115160f21b6064820152608401610533565b61129c3084611ff0565b6112a7878d8d611a20565b6112b2868d8c611a20565b6040516370a0823160e01b81523060048201526001600160a01b038816906370a0823190602401602060405180830381865afa1580156112f6573d6000803e3d6000fd5b505050506040513d601f19601f8201168201806040525081019061131a9190612367565b6040516370a0823160e01b81523060048201529095506001600160a01b038716906370a0823190602401602060405180830381865afa158015611361573d6000803e3d6000fd5b505050506040513d601f19601f820116820180604052508101906113859190612367565b935061139385858b8b611b3b565b81156113bc57600a546113b8906001600160701b03600160701b8204811691166123ad565b600d555b604080518c8152602081018c90526001600160a01b038e169133917fdccd412f0b1252819cb1fd330b93224ca42612892bb3f4f789976e6d81936496910160405180910390a35050505050505050506001600681905550915091565b60018054610b29906123cc565b33600090815260036020526040812080548391908390611446908490612396565b90915550506001600160a01b038316600081815260036020526040908190208054850190555133906000805160206125c983398151915290610c2f9086815260200190565b6006546001146114ad5760405162461bcd60e51b8152600401610533906122f7565b6002600655600854600954600a546040516370a0823160e01b81523060048201526001600160a01b03938416939092169161154c91849186916001600160701b03169083906370a08231906024015b602060405180830381865afa158015611519573d6000803e3d6000fd5b505050506040513d601f19601f8201168201806040525081019061153d9190612367565b6115479190612396565b611a20565b600a546040516370a0823160e01b81523060048201526115949183918691600160701b90046001600160701b0316906001600160a01b038416906370a08231906024016114fc565b5050600160065550565b428410156115ee5760405162461bcd60e51b815260206004820152601760248201527f5045524d49545f444541444c494e455f455850495245440000000000000000006044820152606401610533565b60006115f8610d20565b6001600160a01b0389811660008181526005602090815260409182902080546001810190915582517f6e71edae12b1b97f4d1f60370fef10105fa2faae0126114a169c64845d6126c98184015280840194909452938c166060840152608083018b905260a083019390935260c08083018a90528151808403909101815260e08301909152805192019190912061190160f01b6101008301526101028201929092526101228101919091526101420160408051601f198184030181528282528051602091820120600080855291840180845281905260ff88169284019290925260608301869052608083018590529092509060019060a0016020604051602081039080840390855afa158015611711573d6000803e3d6000fd5b5050604051601f1901519150506001600160a01b038116158015906117475750886001600160a01b0316816001600160a01b0316145b6117845760405162461bcd60e51b815260206004820152600e60248201526d24a72b20a624a22fa9a4a3a722a960911b6044820152606401610533565b6001600160a01b0390811660009081526004602090815260408083208b8516808552908352928190208a905551898152919350918a16917f8c5be1e5ebec7d5bd14f71427d1e84f3dd0314c0f7b2291e5b200ac8c7c3b925910160405180910390a350505050505050565b60008163ffffffff161161183e5760405162461bcd60e51b8152602060048201526016602482015275041757261506169723a206c6f776572207468656e20360541b6044820152606401610533565b6007546001600160a01b0316331461188e5760405162461bcd60e51b815260206004820152601360248201527220bab930a830b4b91d102327a92124a22222a760691b6044820152606401610533565b6103e88163ffffffff1611156118e05760405162461bcd60e51b815260206004820152601760248201527641757261506169723a20464f5242494444454e5f46454560481b6044820152606401610533565b600e805463ffffffff191663ffffffff92909216919091179055565b60065460011461191e5760405162461bcd60e51b8152600401610533906122f7565b60026006556008546040516370a0823160e01b8152306004820152611a19916001600160a01b0316906370a0823190602401602060405180830381865afa15801561196d573d6000803e3d6000fd5b505050506040513d601f19601f820116820180604052508101906119919190612367565b6009546040516370a0823160e01b81523060048201526001600160a01b03909116906370a0823190602401602060405180830381865afa1580156119d9573d6000803e3d6000fd5b505050506040513d601f19601f820116820180604052508101906119fd9190612367565b600a546001600160701b0380821691600160701b900416611b3b565b6001600655565b604080516001600160a01b038481166024830152604480830185905283518084039091018152606490920183526020820180516001600160e01b031663a9059cbb60e01b1790529151600092839290871691611a7c919061242b565b6000604051808303816000865af19150503d8060008114611ab9576040519150601f19603f3d011682016040523d82523d6000602084013e611abe565b606091505b5091509150818015611ae8575080511580611ae8575080806020019051810190611ae89190612447565b611b345760405162461bcd60e51b815260206004820152601f60248201527f5472616e7366657248656c7065723a205452414e534645525f4641494c4544006044820152606401610533565b5050505050565b6001600160701b038411801590611b5957506001600160701b038311155b611b965760405162461bcd60e51b815260206004820152600e60248201526d417572613a204f564552464c4f5760901b6044820152606401610533565b6000611ba764010000000042612469565b600a54909150600090611bc790600160e01b900463ffffffff168361247d565b905060008163ffffffff16118015611be757506001600160701b03841615155b8015611bfb57506001600160701b03831615155b15611c8a578063ffffffff16611c2385611c1486612052565b6001600160e01b031690612071565b6001600160e01b0316611c3691906123ad565b600b6000828254611c4791906124a2565b909155505063ffffffff8116611c6084611c1487612052565b6001600160e01b0316611c7391906123ad565b600c6000828254611c8491906124a2565b90915550505b600a805463ffffffff8416600160e01b026001600160e01b036001600160701b03898116600160701b9081026001600160e01b03199095168c83161794909417918216831794859055604080519382169282169290921783529290930490911660208201527f1c411e9a96e071241c2f21f7726b17ae89e3cab4c78be50e062b03a9fffbbad1910160405180910390a1505050505050565b60007f8b73c3c69bb8fe3d512ecc4cf759cc79239f7b179b0ffacaa9a75d522b39400f6000604051611d5491906124ba565b6040805191829003822060208301939093528101919091527fc89efdaa54c0f20c7adf612882df0950f5a951637e0307cdcb4c672f298b8bc660608201524660808201523060a082015260c00160405160208183030381529060405280519060200120905090565b600080600760009054906101000a90046001600160a01b03166001600160a01b031663017e7e586040518163ffffffff1660e01b8152600401602060405180830381865afa158015611e12573d6000803e3d6000fd5b505050506040513d601f19601f82011682018060405250810190611e369190612556565b600d546001600160a01b038216158015945091925090611efa578015611ef5576000611e71610f676001600160701b038088169089166123ad565b90506000611e7e83611f0e565b905080821115611ef2576000611e948284612396565b600254611ea191906123ad565b600e549091506000908390611ec490640100000000900463ffffffff16866123ad565b611ece91906124a2565b90506000611edc8284612417565b90508015611eee57611eee8782611f7e565b5050505b50505b611f06565b8015611f06576000600d555b505092915050565b60006003821115611f6f5750806000611f28600283612417565b611f339060016124a2565b90505b81811015611f6957905080600281611f4e8186612417565b611f5891906124a2565b611f629190612417565b9050611f36565b50919050565b8115611f79575060015b919050565b8060026000828254611f9091906124a2565b90915550506001600160a01b0382166000818152600360209081526040808320805486019055518481526000805160206125c983398151915291015b60405180910390a35050565b6000818310611fe75781611fe9565b825b9392505050565b6001600160a01b03821660009081526003602052604081208054839290612018908490612396565b90915550506002805482900390556040518181526000906001600160a01b038416906000805160206125c983398151915290602001611fcc565b600061206b600160701b6001600160701b038416612573565b92915050565b6000611fe96001600160701b038316846125a2565b6001600160a01b038116811461209b57600080fd5b50565b6000806000806000608086880312156120b657600080fd5b853594506020860135935060408601356120cf81612086565b9250606086013567ffffffffffffffff808211156120ec57600080fd5b818801915088601f83011261210057600080fd5b81358181111561210f57600080fd5b89602082850101111561212157600080fd5b9699959850939650602001949392505050565b60006020828403121561214657600080fd5b813563ffffffff81168114611fe957600080fd5b60005b8381101561217557818101518382015260200161215d565b83811115612184576000848401525b50505050565b60208152600082518060208401526121a981604085016020870161215a565b601f01601f19169190910160400192915050565b600080604083850312156121d057600080fd5b82356121db81612086565b946020939093013593505050565b6000806000606084860312156121fe57600080fd5b833561220981612086565b9250602084013561221981612086565b929592945050506040919091013590565b6000806040838503121561223d57600080fd5b823561224881612086565b9150602083013561225881612086565b809150509250929050565b60006020828403121561227557600080fd5b8135611fe981612086565b600080600080600080600060e0888a03121561229b57600080fd5b87356122a681612086565b965060208801356122b681612086565b95506040880135945060608801359350608088013560ff811681146122da57600080fd5b9699959850939692959460a0840135945060c09093013592915050565b6020808252600a90820152695245454e5452414e435960b01b604082015260600190565b60018060a01b038616815284602082015283604082015260806060820152816080820152818360a0830137600081830160a090810191909152601f909201601f19160101949350505050565b60006020828403121561237957600080fd5b5051919050565b634e487b7160e01b600052601160045260246000fd5b6000828210156123a8576123a8612380565b500390565b60008160001904831182151516156123c7576123c7612380565b500290565b600181811c908216806123e057607f821691505b60208210811415611f6957634e487b7160e01b600052602260045260246000fd5b634e487b7160e01b600052601260045260246000fd5b60008261242657612426612401565b500490565b6000825161243d81846020870161215a565b9190910192915050565b60006020828403121561245957600080fd5b81518015158114611fe957600080fd5b60008261247857612478612401565b500690565b600063ffffffff8381169083168181101561249a5761249a612380565b039392505050565b600082198211156124b5576124b5612380565b500190565b600080835481600182811c9150808316806124d657607f831692505b60208084108214156124f657634e487b7160e01b86526022600452602486fd5b81801561250a576001811461251b57612548565b60ff19861689528489019650612548565b60008a81526020902060005b868110156125405781548b820152908501908301612527565b505084890196505b509498975050505050505050565b60006020828403121561256857600080fd5b8151611fe981612086565b60006001600160e01b038281168482168115158284048211161561259957612599612380565b02949350505050565b60006001600160e01b03838116806125bc576125bc612401565b9216919091049291505056feddf252ad1be2c89b69c2b068fc378daa952ba7f163c4a11628f55a4df523b3efa26469706673582212207670c2222a58d6f2c0e423ff108dadcc6b9cad5f55e00c230dc2ab2a6c4aa70664736f6c634300080a0033a264697066735822122030a75e475568f40596b218f5329a5498eacbcf5687a51d2dae074de75f7fb16964736f6c634300080a003360e06040526001600655600e80546001600160401b0319166405000000021790553480156200002d57600080fd5b50604080518082018252600881526741757261204c507360c01b6020808301918252835180850190945260078452660415552412d4c560cc1b90840152815191929160129162000081916000919062000167565b5081516200009790600190602085019062000167565b5060ff81166080524660a052620000ad620000cb565b60c0525050600780546001600160a01b0319163317905550620002ee565b60007f8b73c3c69bb8fe3d512ecc4cf759cc79239f7b179b0ffacaa9a75d522b39400f6000604051620000ff91906200024a565b6040805191829003822060208301939093528101919091527fc89efdaa54c0f20c7adf612882df0950f5a951637e0307cdcb4c672f298b8bc660608201524660808201523060a082015260c00160405160208183030381529060405280519060200120905090565b82805462000175906200020d565b90600052602060002090601f016020900481019282620001995760008555620001e4565b82601f10620001b457805160ff1916838001178555620001e4565b82800160010185558215620001e4579182015b82811115620001e4578251825591602001919060010190620001c7565b50620001f2929150620001f6565b5090565b5b80821115620001f25760008155600101620001f7565b600181811c908216806200022257607f821691505b602082108114156200024457634e487b7160e01b600052602260045260246000fd5b50919050565b600080835481600182811c9150808316806200026757607f831692505b60208084108214156200028857634e487b7160e01b86526022600452602486fd5b8180156200029f5760018114620002b157620002e0565b60ff19861689528489019650620002e0565b60008a81526020902060005b86811015620002d85781548b820152908501908301620002bd565b505084890196505b509498975050505050505050565b60805160a05160c05161261e6200031e6000396000610d5901526000610d2401526000610313015261261e6000f3fe608060405234801561001057600080fd5b50600436106101f05760003560e01c80636827e7641161010f578063ba9a7a56116100a2578063d505accf11610071578063d505accf146104b8578063d6d788c3146104cb578063dd62ed3e146104de578063fff6cae91461050957600080fd5b8063ba9a7a5614610476578063bc25cf771461047f578063c45a015514610492578063d21220a7146104a557600080fd5b80637ecebe00116100de5780637ecebe001461041357806389afcb441461043357806395d89b411461045b578063a9059cbb1461046357600080fd5b80636827e764146103bf5780636a627842146103d757806370a08231146103ea5780637464fc3d1461040a57600080fd5b806330adf81f1161018757806354cf2aeb1161015657806354cf2aeb146103625780635909c0d5146103875780635a3d5493146103905780635e07a0991461039957600080fd5b806330adf81f146102e7578063313ce5671461030e5780633644e51514610347578063485cc9551461034f57600080fd5b8063095ea7b3116101c3578063095ea7b31461026f5780630dfe16811461029257806318160ddd146102bd57806323b872dd146102d457600080fd5b8063022c0d9f146101f557806303c150b01461020a57806306fdde031461021d5780630902f1ac1461023b575b600080fd5b61020861020336600461209e565b610511565b005b610208610218366004612134565b610a03565b610225610b1c565b604051610232919061218a565b60405180910390f35b610243610baa565b604080516001600160701b03948516815293909216602084015263ffffffff1690820152606001610232565b61028261027d3660046121bd565b610bd4565b6040519015158152602001610232565b6008546102a5906001600160a01b031681565b6040516001600160a01b039091168152602001610232565b6102c660025481565b604051908152602001610232565b6102826102e23660046121e9565b610c40565b6102c67f6e71edae12b1b97f4d1f60370fef10105fa2faae0126114a169c64845d6126c981565b6103357f000000000000000000000000000000000000000000000000000000000000000081565b60405160ff9091168152602001610232565b6102c6610d20565b61020861035d36600461222a565b610d7b565b600e546103729063ffffffff1681565b60405163ffffffff9091168152602001610232565b6102c6600b5481565b6102c6600c5481565b6103a76001600160701b0381565b6040516001600160701b039091168152602001610232565b600e5461037290640100000000900463ffffffff1681565b6102c66103e5366004612263565b610df4565b6102c66103f8366004612263565b60036020526000908152604090205481565b6102c6600d5481565b6102c6610421366004612263565b60056020526000908152604090205481565b610446610441366004612263565b6110b9565b60408051928352602083019190915201610232565b610225611418565b6102826104713660046121bd565b611425565b6102c66103e881565b61020861048d366004612263565b61148b565b6007546102a5906001600160a01b031681565b6009546102a5906001600160a01b031681565b6102086104c6366004612280565b61159e565b6102086104d9366004612134565b6117ef565b6102c66104ec36600461222a565b600460209081526000928352604080842090915290825290205481565b6102086118fc565b60065460011461053c5760405162461bcd60e51b8152600401610533906122f7565b60405180910390fd5b60026006558415158061054f5750600084115b61059b5760405162461bcd60e51b815260206004820152601f60248201527f4175726120494e53554646494349454e545f4f55545055545f414d4f554e54006044820152606401610533565b6000806105a6610baa565b5091509150816001600160701b0316871080156105cb5750806001600160701b031686105b6106175760405162461bcd60e51b815260206004820152601b60248201527f4175726120494e53554646494349454e545f4c495155494449545900000000006044820152606401610533565b60085460095460009182916001600160a01b039182169190811690891682148015906106555750806001600160a01b0316896001600160a01b031614155b6106935760405162461bcd60e51b815260206004820152600f60248201526e4175726120494e56414c49445f544f60881b6044820152606401610533565b8a156106a4576106a4828a8d611a20565b89156106b5576106b5818a8c611a20565b8615610722576040516329b6c68560e21b81526001600160a01b038a169063a6db1a14906106ef9033908f908f908e908e9060040161231b565b600060405180830381600087803b15801561070957600080fd5b505af115801561071d573d6000803e3d6000fd5b505050505b6040516370a0823160e01b81523060048201526001600160a01b038316906370a0823190602401602060405180830381865afa158015610766573d6000803e3d6000fd5b505050506040513d601f19601f8201168201806040525081019061078a9190612367565b6040516370a0823160e01b81523060048201529094506001600160a01b038216906370a0823190602401602060405180830381865afa1580156107d1573d6000803e3d6000fd5b505050506040513d601f19601f820116820180604052508101906107f59190612367565b92505050600089856001600160701b03166108109190612396565b831161081d57600061083a565b6108308a6001600160701b038716612396565b61083a9084612396565b905060006108518a6001600160701b038716612396565b831161085e57600061087b565b6108718a6001600160701b038716612396565b61087b9084612396565b9050600082118061088c5750600081115b6108d85760405162461bcd60e51b815260206004820152601e60248201527f4175726120494e53554646494349454e545f494e5055545f414d4f554e5400006044820152606401610533565b600e5463ffffffff1660006108ed82856123ad565b6108f9876103e86123ad565b6109039190612396565b9050600061091183856123ad565b61091d876103e86123ad565b6109279190612396565b905061093f6001600160701b03808a16908b166123ad565b61094c90620f42406123ad565b61095682846123ad565b101561098d5760405162461bcd60e51b815260206004820152600660248201526541757261204b60d01b6044820152606401610533565b50505061099c84848888611b3b565b60408051838152602081018390529081018c9052606081018b90526001600160a01b038a169033907fd78ad95fa46c994b6551d0da85fc275fe613ce37657fb8d5e3d130840159d8229060800160405180910390a350506001600655505050505050505050565b60008163ffffffff1611610a525760405162461bcd60e51b8152602060048201526016602482015275041757261506169723a206c6f776572207468656e20360541b6044820152606401610533565b6007546001600160a01b03163314610aa25760405162461bcd60e51b815260206004820152601360248201527220bab930a830b4b91d102327a92124a22222a760691b6044820152606401610533565b6101f48163ffffffff161115610af45760405162461bcd60e51b815260206004820152601760248201527641757261506169723a20464f5242494444454e5f46454560481b6044820152606401610533565b600e805463ffffffff9092166401000000000267ffffffff0000000019909216919091179055565b60008054610b29906123cc565b80601f0160208091040260200160405190810160405280929190818152602001828054610b55906123cc565b8015610ba25780601f10610b7757610100808354040283529160200191610ba2565b820191906000526020600020905b815481529060010190602001808311610b8557829003601f168201915b505050505081565b600a546001600160701b0380821692600160701b830490911691600160e01b900463ffffffff1690565b3360008181526004602090815260408083206001600160a01b038716808552925280832085905551919290917f8c5be1e5ebec7d5bd14f71427d1e84f3dd0314c0f7b2291e5b200ac8c7c3b92590610c2f9086815260200190565b60405180910390a350600192915050565b6001600160a01b03831660009081526004602090815260408083203384529091528120546000198114610c9c57610c778382612396565b6001600160a01b03861660009081526004602090815260408083203384529091529020555b6001600160a01b03851660009081526003602052604081208054859290610cc4908490612396565b90915550506001600160a01b03808516600081815260036020526040908190208054870190555190918716906000805160206125c983398151915290610d0d9087815260200190565b60405180910390a3506001949350505050565b60007f00000000000000000000000000000000000000000000000000000000000000004614610d5657610d51611d22565b905090565b507f000000000000000000000000000000000000000000000000000000000000000090565b6007546001600160a01b03163314610dc65760405162461bcd60e51b815260206004820152600e60248201526d20bab930902327a92124a22222a760911b6044820152606401610533565b600880546001600160a01b039384166001600160a01b03199182161790915560098054929093169116179055565b6000600654600114610e185760405162461bcd60e51b8152600401610533906122f7565b6002600655600080610e28610baa565b506008546040516370a0823160e01b81523060048201529294509092506000916001600160a01b03909116906370a0823190602401602060405180830381865afa158015610e7a573d6000803e3d6000fd5b505050506040513d601f19601f82011682018060405250810190610e9e9190612367565b6009546040516370a0823160e01b81523060048201529192506000916001600160a01b03909116906370a0823190602401602060405180830381865afa158015610eec573d6000803e3d6000fd5b505050506040513d601f19601f82011682018060405250810190610f109190612367565b90506000610f276001600160701b03861684612396565b90506000610f3e6001600160701b03861684612396565b90506000610f4c8787611dbc565b60025490915080610f8a576103e8610f6c610f6785876123ad565b611f0e565b610f769190612396565b9850610f8560006103e8611f7e565b610fd1565b610fce6001600160701b038916610fa183876123ad565b610fab9190612417565b6001600160701b038916610fbf84876123ad565b610fc99190612417565b611fd8565b98505b6000891161102c5760405162461bcd60e51b815260206004820152602260248201527f4175726120494e53554646494349454e545f4c49515549444954595f4d494e54604482015261115160f21b6064820152608401610533565b6110368a8a611f7e565b61104286868a8a611b3b565b811561106b57600a54611067906001600160701b03600160701b8204811691166123ad565b600d555b604080518581526020810185905233917f4c209b5fc8ad50758f13e2e1088ba56a560dff690a1c6fef26394f4c03821c4f910160405180910390a25050600160065550949695505050505050565b6000806006546001146110de5760405162461bcd60e51b8152600401610533906122f7565b60026006556000806110ee610baa565b506008546009546040516370a0823160e01b81523060048201529395509193506001600160a01b039081169291169060009083906370a0823190602401602060405180830381865afa158015611148573d6000803e3d6000fd5b505050506040513d601f19601f8201168201806040525081019061116c9190612367565b6040516370a0823160e01b81523060048201529091506000906001600160a01b038416906370a0823190602401602060405180830381865afa1580156111b6573d6000803e3d6000fd5b505050506040513d601f19601f820116820180604052508101906111da9190612367565b306000908152600360205260408120549192506111f78888611dbc565b6002549091508061120886856123ad565b6112129190612417565b9a508061121f85856123ad565b6112299190612417565b995060008b11801561123b575060008a115b6112925760405162461bcd60e51b815260206004820152602260248201527f4175726120494e53554646494349454e545f4c49515549444954595f4255524e604482015261115160f21b6064820152608401610533565b61129c3084611ff0565b6112a7878d8d611a20565b6112b2868d8c611a20565b6040516370a0823160e01b81523060048201526001600160a01b038816906370a0823190602401602060405180830381865afa1580156112f6573d6000803e3d6000fd5b505050506040513d601f19601f8201168201806040525081019061131a9190612367565b6040516370a0823160e01b81523060048201529095506001600160a01b038716906370a0823190602401602060405180830381865afa158015611361573d6000803e3d6000fd5b505050506040513d601f19601f820116820180604052508101906113859190612367565b935061139385858b8b611b3b565b81156113bc57600a546113b8906001600160701b03600160701b8204811691166123ad565b600d555b604080518c8152602081018c90526001600160a01b038e169133917fdccd412f0b1252819cb1fd330b93224ca42612892bb3f4f789976e6d81936496910160405180910390a35050505050505050506001600681905550915091565b60018054610b29906123cc565b33600090815260036020526040812080548391908390611446908490612396565b90915550506001600160a01b038316600081815260036020526040908190208054850190555133906000805160206125c983398151915290610c2f9086815260200190565b6006546001146114ad5760405162461bcd60e51b8152600401610533906122f7565b6002600655600854600954600a546040516370a0823160e01b81523060048201526001600160a01b03938416939092169161154c91849186916001600160701b03169083906370a08231906024015b602060405180830381865afa158015611519573d6000803e3d6000fd5b505050506040513d601f19601f8201168201806040525081019061153d9190612367565b6115479190612396565b611a20565b600a546040516370a0823160e01b81523060048201526115949183918691600160701b90046001600160701b0316906001600160a01b038416906370a08231906024016114fc565b5050600160065550565b428410156115ee5760405162461bcd60e51b815260206004820152601760248201527f5045524d49545f444541444c494e455f455850495245440000000000000000006044820152606401610533565b60006115f8610d20565b6001600160a01b0389811660008181526005602090815260409182902080546001810190915582517f6e71edae12b1b97f4d1f60370fef10105fa2faae0126114a169c64845d6126c98184015280840194909452938c166060840152608083018b905260a083019390935260c08083018a90528151808403909101815260e08301909152805192019190912061190160f01b6101008301526101028201929092526101228101919091526101420160408051601f198184030181528282528051602091820120600080855291840180845281905260ff88169284019290925260608301869052608083018590529092509060019060a0016020604051602081039080840390855afa158015611711573d6000803e3d6000fd5b5050604051601f1901519150506001600160a01b038116158015906117475750886001600160a01b0316816001600160a01b0316145b6117845760405162461bcd60e51b815260206004820152600e60248201526d24a72b20a624a22fa9a4a3a722a960911b6044820152606401610533565b6001600160a01b0390811660009081526004602090815260408083208b8516808552908352928190208a905551898152919350918a16917f8c5be1e5ebec7d5bd14f71427d1e84f3dd0314c0f7b2291e5b200ac8c7c3b925910160405180910390a350505050505050565b60008163ffffffff161161183e5760405162461bcd60e51b8152602060048201526016602482015275041757261506169723a206c6f776572207468656e20360541b6044820152606401610533565b6007546001600160a01b0316331461188e5760405162461bcd60e51b815260206004820152601360248201527220bab930a830b4b91d102327a92124a22222a760691b6044820152606401610533565b6103e88163ffffffff1611156118e05760405162461bcd60e51b815260206004820152601760248201527641757261506169723a20464f5242494444454e5f46454560481b6044820152606401610533565b600e805463ffffffff191663ffffffff92909216919091179055565b60065460011461191e5760405162461bcd60e51b8152600401610533906122f7565b60026006556008546040516370a0823160e01b8152306004820152611a19916001600160a01b0316906370a0823190602401602060405180830381865afa15801561196d573d6000803e3d6000fd5b505050506040513d601f19601f820116820180604052508101906119919190612367565b6009546040516370a0823160e01b81523060048201526001600160a01b03909116906370a0823190602401602060405180830381865afa1580156119d9573d6000803e3d6000fd5b505050506040513d601f19601f820116820180604052508101906119fd9190612367565b600a546001600160701b0380821691600160701b900416611b3b565b6001600655565b604080516001600160a01b038481166024830152604480830185905283518084039091018152606490920183526020820180516001600160e01b031663a9059cbb60e01b1790529151600092839290871691611a7c919061242b565b6000604051808303816000865af19150503d8060008114611ab9576040519150601f19603f3d011682016040523d82523d6000602084013e611abe565b606091505b5091509150818015611ae8575080511580611ae8575080806020019051810190611ae89190612447565b611b345760405162461bcd60e51b815260206004820152601f60248201527f5472616e7366657248656c7065723a205452414e534645525f4641494c4544006044820152606401610533565b5050505050565b6001600160701b038411801590611b5957506001600160701b038311155b611b965760405162461bcd60e51b815260206004820152600e60248201526d417572613a204f564552464c4f5760901b6044820152606401610533565b6000611ba764010000000042612469565b600a54909150600090611bc790600160e01b900463ffffffff168361247d565b905060008163ffffffff16118015611be757506001600160701b03841615155b8015611bfb57506001600160701b03831615155b15611c8a578063ffffffff16611c2385611c1486612052565b6001600160e01b031690612071565b6001600160e01b0316611c3691906123ad565b600b6000828254611c4791906124a2565b909155505063ffffffff8116611c6084611c1487612052565b6001600160e01b0316611c7391906123ad565b600c6000828254611c8491906124a2565b90915550505b600a805463ffffffff8416600160e01b026001600160e01b036001600160701b03898116600160701b9081026001600160e01b03199095168c83161794909417918216831794859055604080519382169282169290921783529290930490911660208201527f1c411e9a96e071241c2f21f7726b17ae89e3cab4c78be50e062b03a9fffbbad1910160405180910390a1505050505050565b60007f8b73c3c69bb8fe3d512ecc4cf759cc79239f7b179b0ffacaa9a75d522b39400f6000604051611d5491906124ba565b6040805191829003822060208301939093528101919091527fc89efdaa54c0f20c7adf612882df0950f5a951637e0307cdcb4c672f298b8bc660608201524660808201523060a082015260c00160405160208183030381529060405280519060200120905090565b600080600760009054906101000a90046001600160a01b03166001600160a01b031663017e7e586040518163ffffffff1660e01b8152600401602060405180830381865afa158015611e12573d6000803e3d6000fd5b505050506040513d601f19601f82011682018060405250810190611e369190612556565b600d546001600160a01b038216158015945091925090611efa578015611ef5576000611e71610f676001600160701b038088169089166123ad565b90506000611e7e83611f0e565b905080821115611ef2576000611e948284612396565b600254611ea191906123ad565b600e549091506000908390611ec490640100000000900463ffffffff16866123ad565b611ece91906124a2565b90506000611edc8284612417565b90508015611eee57611eee8782611f7e565b5050505b50505b611f06565b8015611f06576000600d555b505092915050565b60006003821115611f6f5750806000611f28600283612417565b611f339060016124a2565b90505b81811015611f6957905080600281611f4e8186612417565b611f5891906124a2565b611f629190612417565b9050611f36565b50919050565b8115611f79575060015b919050565b8060026000828254611f9091906124a2565b90915550506001600160a01b0382166000818152600360209081526040808320805486019055518481526000805160206125c983398151915291015b60405180910390a35050565b6000818310611fe75781611fe9565b825b9392505050565b6001600160a01b03821660009081526003602052604081208054839290612018908490612396565b90915550506002805482900390556040518181526000906001600160a01b038416906000805160206125c983398151915290602001611fcc565b600061206b600160701b6001600160701b038416612573565b92915050565b6000611fe96001600160701b038316846125a2565b6001600160a01b038116811461209b57600080fd5b50565b6000806000806000608086880312156120b657600080fd5b853594506020860135935060408601356120cf81612086565b9250606086013567ffffffffffffffff808211156120ec57600080fd5b818801915088601f83011261210057600080fd5b81358181111561210f57600080fd5b89602082850101111561212157600080fd5b9699959850939650602001949392505050565b60006020828403121561214657600080fd5b813563ffffffff81168114611fe957600080fd5b60005b8381101561217557818101518382015260200161215d565b83811115612184576000848401525b50505050565b60208152600082518060208401526121a981604085016020870161215a565b601f01601f19169190910160400192915050565b600080604083850312156121d057600080fd5b82356121db81612086565b946020939093013593505050565b6000806000606084860312156121fe57600080fd5b833561220981612086565b9250602084013561221981612086565b929592945050506040919091013590565b6000806040838503121561223d57600080fd5b823561224881612086565b9150602083013561225881612086565b809150509250929050565b60006020828403121561227557600080fd5b8135611fe981612086565b600080600080600080600060e0888a03121561229b57600080fd5b87356122a681612086565b965060208801356122b681612086565b95506040880135945060608801359350608088013560ff811681146122da57600080fd5b9699959850939692959460a0840135945060c09093013592915050565b6020808252600a90820152695245454e5452414e435960b01b604082015260600190565b60018060a01b038616815284602082015283604082015260806060820152816080820152818360a0830137600081830160a090810191909152601f909201601f19160101949350505050565b60006020828403121561237957600080fd5b5051919050565b634e487b7160e01b600052601160045260246000fd5b6000828210156123a8576123a8612380565b500390565b60008160001904831182151516156123c7576123c7612380565b500290565b600181811c908216806123e057607f821691505b60208210811415611f6957634e487b7160e01b600052602260045260246000fd5b634e487b7160e01b600052601260045260246000fd5b60008261242657612426612401565b500490565b6000825161243d81846020870161215a565b9190910192915050565b60006020828403121561245957600080fd5b81518015158114611fe957600080fd5b60008261247857612478612401565b500690565b600063ffffffff8381169083168181101561249a5761249a612380565b039392505050565b600082198211156124b5576124b5612380565b500190565b600080835481600182811c9150808316806124d657607f831692505b60208084108214156124f657634e487b7160e01b86526022600452602486fd5b81801561250a576001811461251b57612548565b60ff19861689528489019650612548565b60008a81526020902060005b868110156125405781548b820152908501908301612527565b505084890196505b509498975050505050505050565b60006020828403121561256857600080fd5b8151611fe981612086565b60006001600160e01b038281168482168115158284048211161561259957612599612380565b02949350505050565b60006001600160e01b03838116806125bc576125bc612401565b9216919091049291505056feddf252ad1be2c89b69c2b068fc378daa952ba7f163c4a11628f55a4df523b3efa26469706673582212207670c2222a58d6f2c0e423ff108dadcc6b9cad5f55e00c230dc2ab2a6c4aa70664736f6c634300080a0033",
  "immutableReferences": {},
  "source": "//SPDX-License-Identifier:MIT\npragma solidity >=0.8.0;\n\nimport './AuraPair.sol';\nimport \"@uniswap/v2-core/contracts/interfaces/IUniswapV2Factory.sol\";\n\ncontract AuraFactory is IUniswapV2Factory {\n    address public feeTo;\n    address public feeToSetter;\n    bytes32 public INIT_CODE_HASH = keccak256(abi.encodePacked(type(AuraPair).creationCode));\n\n    mapping(address => mapping(address => address)) public getPair;\n    address[] public allPairs;\n\n    constructor(address _feeToSetter) {\n        feeToSetter = _feeToSetter;\n    }\n\n    function allPairsLength() external view returns (uint) {\n        return allPairs.length;\n    }\n\n    function createPair(address tokenA, address tokenB) external returns (address pair) {\n        require(tokenA != tokenB, 'Aura: IDENTICAL_ADDRESSES');\n        (address token0, address token1) = tokenA < tokenB ? (tokenA, tokenB) : (tokenB, tokenA);\n        require(token0 != address(0), 'Aura: ZERO_ADDRESS');\n        require(getPair[token0][token1] == address(0), 'Aura: PAIR_EXISTS'); // single check is sufficient\n        bytes memory bytecode = type(AuraPair).creationCode;\n        bytes32 salt = keccak256(abi.encodePacked(token0, token1));\n        assembly {\n            pair := create2(0, add(bytecode, 32), mload(bytecode), salt)\n        }\n        AuraPair(pair).initialize(token0, token1);\n        getPair[token0][token1] = pair;\n        getPair[token1][token0] = pair; // populate mapping in the reverse direction\n        allPairs.push(pair);\n        emit PairCreated(token0, token1, pair, allPairs.length);\n    }\n\n    function setFeeTo(address _feeTo) external {\n        require(msg.sender == feeToSetter, 'Aura: FORBIDDEN');\n        feeTo = _feeTo;\n    }\n\n    function setFeeToSetter(address _feeToSetter) external {\n        require(msg.sender == feeToSetter, 'Aura: FORBIDDEN');\n        feeToSetter = _feeToSetter;\n    }\n\n    function setDevFee(address _pair, uint8 _devFee) external {\n        require(msg.sender == feeToSetter, 'Aura: FORBIDDEN');\n        require(_devFee > 0, 'Aura: FORBIDDEN_FEE');\n        AuraPair(_pair).setDevFee(_devFee);\n    }\n    \n    function setSwapFee(address _pair, uint32 _swapFee) external {\n        require(msg.sender == feeToSetter, 'Aura: FORBIDDEN');\n        AuraPair(_pair).setSwapFee(_swapFee);\n    }\n}",
  "sourcePath": "/Users/ericboris/Developer/aura/contracts/swaps/AuraFactory.sol",
  "compiler": {
    "name": "solc",
    "version": "0.8.10+commit.fc410830.Emscripten.clang"
  },
  "schemaVersion": "3.4.4",
  "updatedAt": "2022-01-31T06:20:46.925Z",
  "devdoc": {
    "kind": "dev",
    "methods": {},
    "version": 1
  },
  "userdoc": {
    "kind": "user",
    "methods": {},
    "version": 1
  }
}