{
  "contractName": "AuraPair",
  "abi": [
    {
      "inputs": [],
      "stateMutability": "nonpayable",
      "type": "constructor"
    },
    {
      "anonymous": false,
      "inputs": [
        {
          "indexed": true,
          "internalType": "address",
          "name": "owner",
          "type": "address"
        },
        {
          "indexed": true,
          "internalType": "address",
          "name": "spender",
          "type": "address"
        },
        {
          "indexed": false,
          "internalType": "uint256",
          "name": "amount",
          "type": "uint256"
        }
      ],
      "name": "Approval",
      "type": "event"
    },
    {
      "anonymous": false,
      "inputs": [
        {
          "indexed": true,
          "internalType": "address",
          "name": "sender",
          "type": "address"
        },
        {
          "indexed": false,
          "internalType": "uint256",
          "name": "amount0",
          "type": "uint256"
        },
        {
          "indexed": false,
          "internalType": "uint256",
          "name": "amount1",
          "type": "uint256"
        },
        {
          "indexed": true,
          "internalType": "address",
          "name": "to",
          "type": "address"
        }
      ],
      "name": "Burn",
      "type": "event"
    },
    {
      "anonymous": false,
      "inputs": [
        {
          "indexed": true,
          "internalType": "address",
          "name": "sender",
          "type": "address"
        },
        {
          "indexed": false,
          "internalType": "uint256",
          "name": "amount0",
          "type": "uint256"
        },
        {
          "indexed": false,
          "internalType": "uint256",
          "name": "amount1",
          "type": "uint256"
        }
      ],
      "name": "Mint",
      "type": "event"
    },
    {
      "anonymous": false,
      "inputs": [
        {
          "indexed": true,
          "internalType": "address",
          "name": "sender",
          "type": "address"
        },
        {
          "indexed": false,
          "internalType": "uint256",
          "name": "amount0In",
          "type": "uint256"
        },
        {
          "indexed": false,
          "internalType": "uint256",
          "name": "amount1In",
          "type": "uint256"
        },
        {
          "indexed": false,
          "internalType": "uint256",
          "name": "amount0Out",
          "type": "uint256"
        },
        {
          "indexed": false,
          "internalType": "uint256",
          "name": "amount1Out",
          "type": "uint256"
        },
        {
          "indexed": true,
          "internalType": "address",
          "name": "to",
          "type": "address"
        }
      ],
      "name": "Swap",
      "type": "event"
    },
    {
      "anonymous": false,
      "inputs": [
        {
          "indexed": false,
          "internalType": "uint112",
          "name": "reserve0",
          "type": "uint112"
        },
        {
          "indexed": false,
          "internalType": "uint112",
          "name": "reserve1",
          "type": "uint112"
        }
      ],
      "name": "Sync",
      "type": "event"
    },
    {
      "anonymous": false,
      "inputs": [
        {
          "indexed": true,
          "internalType": "address",
          "name": "from",
          "type": "address"
        },
        {
          "indexed": true,
          "internalType": "address",
          "name": "to",
          "type": "address"
        },
        {
          "indexed": false,
          "internalType": "uint256",
          "name": "amount",
          "type": "uint256"
        }
      ],
      "name": "Transfer",
      "type": "event"
    },
    {
      "inputs": [],
      "name": "DOMAIN_SEPARATOR",
      "outputs": [
        {
          "internalType": "bytes32",
          "name": "",
          "type": "bytes32"
        }
      ],
      "stateMutability": "view",
      "type": "function"
    },
    {
      "inputs": [],
      "name": "MAX_UINT112",
      "outputs": [
        {
          "internalType": "uint112",
          "name": "",
          "type": "uint112"
        }
      ],
      "stateMutability": "view",
      "type": "function"
    },
    {
      "inputs": [],
      "name": "MINIMUM_LIQUIDITY",
      "outputs": [
        {
          "internalType": "uint256",
          "name": "",
          "type": "uint256"
        }
      ],
      "stateMutability": "view",
      "type": "function"
    },
    {
      "inputs": [],
      "name": "PERMIT_TYPEHASH",
      "outputs": [
        {
          "internalType": "bytes32",
          "name": "",
          "type": "bytes32"
        }
      ],
      "stateMutability": "view",
      "type": "function"
    },
    {
      "inputs": [
        {
          "internalType": "address",
          "name": "",
          "type": "address"
        },
        {
          "internalType": "address",
          "name": "",
          "type": "address"
        }
      ],
      "name": "allowance",
      "outputs": [
        {
          "internalType": "uint256",
          "name": "",
          "type": "uint256"
        }
      ],
      "stateMutability": "view",
      "type": "function"
    },
    {
      "inputs": [
        {
          "internalType": "address",
          "name": "spender",
          "type": "address"
        },
        {
          "internalType": "uint256",
          "name": "amount",
          "type": "uint256"
        }
      ],
      "name": "approve",
      "outputs": [
        {
          "internalType": "bool",
          "name": "",
          "type": "bool"
        }
      ],
      "stateMutability": "nonpayable",
      "type": "function"
    },
    {
      "inputs": [
        {
          "internalType": "address",
          "name": "",
          "type": "address"
        }
      ],
      "name": "balanceOf",
      "outputs": [
        {
          "internalType": "uint256",
          "name": "",
          "type": "uint256"
        }
      ],
      "stateMutability": "view",
      "type": "function"
    },
    {
      "inputs": [],
      "name": "decimals",
      "outputs": [
        {
          "internalType": "uint8",
          "name": "",
          "type": "uint8"
        }
      ],
      "stateMutability": "view",
      "type": "function"
    },
    {
      "inputs": [],
      "name": "devFee",
      "outputs": [
        {
          "internalType": "uint32",
          "name": "",
          "type": "uint32"
        }
      ],
      "stateMutability": "view",
      "type": "function"
    },
    {
      "inputs": [],
      "name": "factory",
      "outputs": [
        {
          "internalType": "address",
          "name": "",
          "type": "address"
        }
      ],
      "stateMutability": "view",
      "type": "function"
    },
    {
      "inputs": [],
      "name": "kLast",
      "outputs": [
        {
          "internalType": "uint256",
          "name": "",
          "type": "uint256"
        }
      ],
      "stateMutability": "view",
      "type": "function"
    },
    {
      "inputs": [],
      "name": "name",
      "outputs": [
        {
          "internalType": "string",
          "name": "",
          "type": "string"
        }
      ],
      "stateMutability": "view",
      "type": "function"
    },
    {
      "inputs": [
        {
          "internalType": "address",
          "name": "",
          "type": "address"
        }
      ],
      "name": "nonces",
      "outputs": [
        {
          "internalType": "uint256",
          "name": "",
          "type": "uint256"
        }
      ],
      "stateMutability": "view",
      "type": "function"
    },
    {
      "inputs": [
        {
          "internalType": "address",
          "name": "owner",
          "type": "address"
        },
        {
          "internalType": "address",
          "name": "spender",
          "type": "address"
        },
        {
          "internalType": "uint256",
          "name": "value",
          "type": "uint256"
        },
        {
          "internalType": "uint256",
          "name": "deadline",
          "type": "uint256"
        },
        {
          "internalType": "uint8",
          "name": "v",
          "type": "uint8"
        },
        {
          "internalType": "bytes32",
          "name": "r",
          "type": "bytes32"
        },
        {
          "internalType": "bytes32",
          "name": "s",
          "type": "bytes32"
        }
      ],
      "name": "permit",
      "outputs": [],
      "stateMutability": "nonpayable",
      "type": "function"
    },
    {
      "inputs": [],
      "name": "price0CumulativeLast",
      "outputs": [
        {
          "internalType": "uint256",
          "name": "",
          "type": "uint256"
        }
      ],
      "stateMutability": "view",
      "type": "function"
    },
    {
      "inputs": [],
      "name": "price1CumulativeLast",
      "outputs": [
        {
          "internalType": "uint256",
          "name": "",
          "type": "uint256"
        }
      ],
      "stateMutability": "view",
      "type": "function"
    },
    {
      "inputs": [],
      "name": "swapFee",
      "outputs": [
        {
          "internalType": "uint32",
          "name": "",
          "type": "uint32"
        }
      ],
      "stateMutability": "view",
      "type": "function"
    },
    {
      "inputs": [],
      "name": "symbol",
      "outputs": [
        {
          "internalType": "string",
          "name": "",
          "type": "string"
        }
      ],
      "stateMutability": "view",
      "type": "function"
    },
    {
      "inputs": [],
      "name": "token0",
      "outputs": [
        {
          "internalType": "address",
          "name": "",
          "type": "address"
        }
      ],
      "stateMutability": "view",
      "type": "function"
    },
    {
      "inputs": [],
      "name": "token1",
      "outputs": [
        {
          "internalType": "address",
          "name": "",
          "type": "address"
        }
      ],
      "stateMutability": "view",
      "type": "function"
    },
    {
      "inputs": [],
      "name": "totalSupply",
      "outputs": [
        {
          "internalType": "uint256",
          "name": "",
          "type": "uint256"
        }
      ],
      "stateMutability": "view",
      "type": "function"
    },
    {
      "inputs": [
        {
          "internalType": "address",
          "name": "to",
          "type": "address"
        },
        {
          "internalType": "uint256",
          "name": "amount",
          "type": "uint256"
        }
      ],
      "name": "transfer",
      "outputs": [
        {
          "internalType": "bool",
          "name": "",
          "type": "bool"
        }
      ],
      "stateMutability": "nonpayable",
      "type": "function"
    },
    {
      "inputs": [
        {
          "internalType": "address",
          "name": "from",
          "type": "address"
        },
        {
          "internalType": "address",
          "name": "to",
          "type": "address"
        },
        {
          "internalType": "uint256",
          "name": "amount",
          "type": "uint256"
        }
      ],
      "name": "transferFrom",
      "outputs": [
        {
          "internalType": "bool",
          "name": "",
          "type": "bool"
        }
      ],
      "stateMutability": "nonpayable",
      "type": "function"
    },
    {
      "inputs": [],
      "name": "getReserves",
      "outputs": [
        {
          "internalType": "uint112",
          "name": "_reserve0",
          "type": "uint112"
        },
        {
          "internalType": "uint112",
          "name": "_reserve1",
          "type": "uint112"
        },
        {
          "internalType": "uint32",
          "name": "_blockTimestampLast",
          "type": "uint32"
        }
      ],
      "stateMutability": "view",
      "type": "function"
    },
    {
      "inputs": [
        {
          "internalType": "address",
          "name": "_token0",
          "type": "address"
        },
        {
          "internalType": "address",
          "name": "_token1",
          "type": "address"
        }
      ],
      "name": "initialize",
      "outputs": [],
      "stateMutability": "nonpayable",
      "type": "function"
    },
    {
      "inputs": [
        {
          "internalType": "uint32",
          "name": "_swapFee",
          "type": "uint32"
        }
      ],
      "name": "setSwapFee",
      "outputs": [],
      "stateMutability": "nonpayable",
      "type": "function"
    },
    {
      "inputs": [
        {
          "internalType": "uint32",
          "name": "_devFee",
          "type": "uint32"
        }
      ],
      "name": "setDevFee",
      "outputs": [],
      "stateMutability": "nonpayable",
      "type": "function"
    },
    {
      "inputs": [
        {
          "internalType": "address",
          "name": "to",
          "type": "address"
        }
      ],
      "name": "mint",
      "outputs": [
        {
          "internalType": "uint256",
          "name": "liquidity",
          "type": "uint256"
        }
      ],
      "stateMutability": "nonpayable",
      "type": "function"
    },
    {
      "inputs": [
        {
          "internalType": "address",
          "name": "to",
          "type": "address"
        }
      ],
      "name": "burn",
      "outputs": [
        {
          "internalType": "uint256",
          "name": "amount0",
          "type": "uint256"
        },
        {
          "internalType": "uint256",
          "name": "amount1",
          "type": "uint256"
        }
      ],
      "stateMutability": "nonpayable",
      "type": "function"
    },
    {
      "inputs": [
        {
          "internalType": "uint256",
          "name": "amount0Out",
          "type": "uint256"
        },
        {
          "internalType": "uint256",
          "name": "amount1Out",
          "type": "uint256"
        },
        {
          "internalType": "address",
          "name": "to",
          "type": "address"
        },
        {
          "internalType": "bytes",
          "name": "data",
          "type": "bytes"
        }
      ],
      "name": "swap",
      "outputs": [],
      "stateMutability": "nonpayable",
      "type": "function"
    },
    {
      "inputs": [
        {
          "internalType": "address",
          "name": "to",
          "type": "address"
        }
      ],
      "name": "skim",
      "outputs": [],
      "stateMutability": "nonpayable",
      "type": "function"
    },
    {
      "inputs": [],
      "name": "sync",
      "outputs": [],
      "stateMutability": "nonpayable",
      "type": "function"
    }
  ],
  "bytecode": "0x60e06040526001600655600e80546001600160401b0319166405000000021790553480156200002d57600080fd5b50604080518082018252600881526741757261204c507360c01b6020808301918252835180850190945260078452660415552412d4c560cc1b90840152815191929160129162000081916000919062000167565b5081516200009790600190602085019062000167565b5060ff81166080524660a052620000ad620000cb565b60c0525050600780546001600160a01b0319163317905550620002ee565b60007f8b73c3c69bb8fe3d512ecc4cf759cc79239f7b179b0ffacaa9a75d522b39400f6000604051620000ff91906200024a565b6040805191829003822060208301939093528101919091527fc89efdaa54c0f20c7adf612882df0950f5a951637e0307cdcb4c672f298b8bc660608201524660808201523060a082015260c00160405160208183030381529060405280519060200120905090565b82805462000175906200020d565b90600052602060002090601f016020900481019282620001995760008555620001e4565b82601f10620001b457805160ff1916838001178555620001e4565b82800160010185558215620001e4579182015b82811115620001e4578251825591602001919060010190620001c7565b50620001f2929150620001f6565b5090565b5b80821115620001f25760008155600101620001f7565b600181811c908216806200022257607f821691505b602082108114156200024457634e487b7160e01b600052602260045260246000fd5b50919050565b600080835481600182811c9150808316806200026757607f831692505b60208084108214156200028857634e487b7160e01b86526022600452602486fd5b8180156200029f5760018114620002b157620002e0565b60ff19861689528489019650620002e0565b60008a81526020902060005b86811015620002d85781548b820152908501908301620002bd565b505084890196505b509498975050505050505050565b60805160a05160c05161261e6200031e6000396000610d5901526000610d2401526000610313015261261e6000f3fe608060405234801561001057600080fd5b50600436106101f05760003560e01c80636827e7641161010f578063ba9a7a56116100a2578063d505accf11610071578063d505accf146104b8578063d6d788c3146104cb578063dd62ed3e146104de578063fff6cae91461050957600080fd5b8063ba9a7a5614610476578063bc25cf771461047f578063c45a015514610492578063d21220a7146104a557600080fd5b80637ecebe00116100de5780637ecebe001461041357806389afcb441461043357806395d89b411461045b578063a9059cbb1461046357600080fd5b80636827e764146103bf5780636a627842146103d757806370a08231146103ea5780637464fc3d1461040a57600080fd5b806330adf81f1161018757806354cf2aeb1161015657806354cf2aeb146103625780635909c0d5146103875780635a3d5493146103905780635e07a0991461039957600080fd5b806330adf81f146102e7578063313ce5671461030e5780633644e51514610347578063485cc9551461034f57600080fd5b8063095ea7b3116101c3578063095ea7b31461026f5780630dfe16811461029257806318160ddd146102bd57806323b872dd146102d457600080fd5b8063022c0d9f146101f557806303c150b01461020a57806306fdde031461021d5780630902f1ac1461023b575b600080fd5b61020861020336600461209e565b610511565b005b610208610218366004612134565b610a03565b610225610b1c565b604051610232919061218a565b60405180910390f35b610243610baa565b604080516001600160701b03948516815293909216602084015263ffffffff1690820152606001610232565b61028261027d3660046121bd565b610bd4565b6040519015158152602001610232565b6008546102a5906001600160a01b031681565b6040516001600160a01b039091168152602001610232565b6102c660025481565b604051908152602001610232565b6102826102e23660046121e9565b610c40565b6102c67f6e71edae12b1b97f4d1f60370fef10105fa2faae0126114a169c64845d6126c981565b6103357f000000000000000000000000000000000000000000000000000000000000000081565b60405160ff9091168152602001610232565b6102c6610d20565b61020861035d36600461222a565b610d7b565b600e546103729063ffffffff1681565b60405163ffffffff9091168152602001610232565b6102c6600b5481565b6102c6600c5481565b6103a76001600160701b0381565b6040516001600160701b039091168152602001610232565b600e5461037290640100000000900463ffffffff1681565b6102c66103e5366004612263565b610df4565b6102c66103f8366004612263565b60036020526000908152604090205481565b6102c6600d5481565b6102c6610421366004612263565b60056020526000908152604090205481565b610446610441366004612263565b6110b9565b60408051928352602083019190915201610232565b610225611418565b6102826104713660046121bd565b611425565b6102c66103e881565b61020861048d366004612263565b61148b565b6007546102a5906001600160a01b031681565b6009546102a5906001600160a01b031681565b6102086104c6366004612280565b61159e565b6102086104d9366004612134565b6117ef565b6102c66104ec36600461222a565b600460209081526000928352604080842090915290825290205481565b6102086118fc565b60065460011461053c5760405162461bcd60e51b8152600401610533906122f7565b60405180910390fd5b60026006558415158061054f5750600084115b61059b5760405162461bcd60e51b815260206004820152601f60248201527f4175726120494e53554646494349454e545f4f55545055545f414d4f554e54006044820152606401610533565b6000806105a6610baa565b5091509150816001600160701b0316871080156105cb5750806001600160701b031686105b6106175760405162461bcd60e51b815260206004820152601b60248201527f4175726120494e53554646494349454e545f4c495155494449545900000000006044820152606401610533565b60085460095460009182916001600160a01b039182169190811690891682148015906106555750806001600160a01b0316896001600160a01b031614155b6106935760405162461bcd60e51b815260206004820152600f60248201526e4175726120494e56414c49445f544f60881b6044820152606401610533565b8a156106a4576106a4828a8d611a20565b89156106b5576106b5818a8c611a20565b8615610722576040516329b6c68560e21b81526001600160a01b038a169063a6db1a14906106ef9033908f908f908e908e9060040161231b565b600060405180830381600087803b15801561070957600080fd5b505af115801561071d573d6000803e3d6000fd5b505050505b6040516370a0823160e01b81523060048201526001600160a01b038316906370a0823190602401602060405180830381865afa158015610766573d6000803e3d6000fd5b505050506040513d601f19601f8201168201806040525081019061078a9190612367565b6040516370a0823160e01b81523060048201529094506001600160a01b038216906370a0823190602401602060405180830381865afa1580156107d1573d6000803e3d6000fd5b505050506040513d601f19601f820116820180604052508101906107f59190612367565b92505050600089856001600160701b03166108109190612396565b831161081d57600061083a565b6108308a6001600160701b038716612396565b61083a9084612396565b905060006108518a6001600160701b038716612396565b831161085e57600061087b565b6108718a6001600160701b038716612396565b61087b9084612396565b9050600082118061088c5750600081115b6108d85760405162461bcd60e51b815260206004820152601e60248201527f4175726120494e53554646494349454e545f494e5055545f414d4f554e5400006044820152606401610533565b600e5463ffffffff1660006108ed82856123ad565b6108f9876103e86123ad565b6109039190612396565b9050600061091183856123ad565b61091d876103e86123ad565b6109279190612396565b905061093f6001600160701b03808a16908b166123ad565b61094c90620f42406123ad565b61095682846123ad565b101561098d5760405162461bcd60e51b815260206004820152600660248201526541757261204b60d01b6044820152606401610533565b50505061099c84848888611b3b565b60408051838152602081018390529081018c9052606081018b90526001600160a01b038a169033907fd78ad95fa46c994b6551d0da85fc275fe613ce37657fb8d5e3d130840159d8229060800160405180910390a350506001600655505050505050505050565b60008163ffffffff1611610a525760405162461bcd60e51b8152602060048201526016602482015275041757261506169723a206c6f776572207468656e20360541b6044820152606401610533565b6007546001600160a01b03163314610aa25760405162461bcd60e51b815260206004820152601360248201527220bab930a830b4b91d102327a92124a22222a760691b6044820152606401610533565b6101f48163ffffffff161115610af45760405162461bcd60e51b815260206004820152601760248201527641757261506169723a20464f5242494444454e5f46454560481b6044820152606401610533565b600e805463ffffffff9092166401000000000267ffffffff0000000019909216919091179055565b60008054610b29906123cc565b80601f0160208091040260200160405190810160405280929190818152602001828054610b55906123cc565b8015610ba25780601f10610b7757610100808354040283529160200191610ba2565b820191906000526020600020905b815481529060010190602001808311610b8557829003601f168201915b505050505081565b600a546001600160701b0380821692600160701b830490911691600160e01b900463ffffffff1690565b3360008181526004602090815260408083206001600160a01b038716808552925280832085905551919290917f8c5be1e5ebec7d5bd14f71427d1e84f3dd0314c0f7b2291e5b200ac8c7c3b92590610c2f9086815260200190565b60405180910390a350600192915050565b6001600160a01b03831660009081526004602090815260408083203384529091528120546000198114610c9c57610c778382612396565b6001600160a01b03861660009081526004602090815260408083203384529091529020555b6001600160a01b03851660009081526003602052604081208054859290610cc4908490612396565b90915550506001600160a01b03808516600081815260036020526040908190208054870190555190918716906000805160206125c983398151915290610d0d9087815260200190565b60405180910390a3506001949350505050565b60007f00000000000000000000000000000000000000000000000000000000000000004614610d5657610d51611d22565b905090565b507f000000000000000000000000000000000000000000000000000000000000000090565b6007546001600160a01b03163314610dc65760405162461bcd60e51b815260206004820152600e60248201526d20bab930902327a92124a22222a760911b6044820152606401610533565b600880546001600160a01b039384166001600160a01b03199182161790915560098054929093169116179055565b6000600654600114610e185760405162461bcd60e51b8152600401610533906122f7565b6002600655600080610e28610baa565b506008546040516370a0823160e01b81523060048201529294509092506000916001600160a01b03909116906370a0823190602401602060405180830381865afa158015610e7a573d6000803e3d6000fd5b505050506040513d601f19601f82011682018060405250810190610e9e9190612367565b6009546040516370a0823160e01b81523060048201529192506000916001600160a01b03909116906370a0823190602401602060405180830381865afa158015610eec573d6000803e3d6000fd5b505050506040513d601f19601f82011682018060405250810190610f109190612367565b90506000610f276001600160701b03861684612396565b90506000610f3e6001600160701b03861684612396565b90506000610f4c8787611dbc565b60025490915080610f8a576103e8610f6c610f6785876123ad565b611f0e565b610f769190612396565b9850610f8560006103e8611f7e565b610fd1565b610fce6001600160701b038916610fa183876123ad565b610fab9190612417565b6001600160701b038916610fbf84876123ad565b610fc99190612417565b611fd8565b98505b6000891161102c5760405162461bcd60e51b815260206004820152602260248201527f4175726120494e53554646494349454e545f4c49515549444954595f4d494e54604482015261115160f21b6064820152608401610533565b6110368a8a611f7e565b61104286868a8a611b3b565b811561106b57600a54611067906001600160701b03600160701b8204811691166123ad565b600d555b604080518581526020810185905233917f4c209b5fc8ad50758f13e2e1088ba56a560dff690a1c6fef26394f4c03821c4f910160405180910390a25050600160065550949695505050505050565b6000806006546001146110de5760405162461bcd60e51b8152600401610533906122f7565b60026006556000806110ee610baa565b506008546009546040516370a0823160e01b81523060048201529395509193506001600160a01b039081169291169060009083906370a0823190602401602060405180830381865afa158015611148573d6000803e3d6000fd5b505050506040513d601f19601f8201168201806040525081019061116c9190612367565b6040516370a0823160e01b81523060048201529091506000906001600160a01b038416906370a0823190602401602060405180830381865afa1580156111b6573d6000803e3d6000fd5b505050506040513d601f19601f820116820180604052508101906111da9190612367565b306000908152600360205260408120549192506111f78888611dbc565b6002549091508061120886856123ad565b6112129190612417565b9a508061121f85856123ad565b6112299190612417565b995060008b11801561123b575060008a115b6112925760405162461bcd60e51b815260206004820152602260248201527f4175726120494e53554646494349454e545f4c49515549444954595f4255524e604482015261115160f21b6064820152608401610533565b61129c3084611ff0565b6112a7878d8d611a20565b6112b2868d8c611a20565b6040516370a0823160e01b81523060048201526001600160a01b038816906370a0823190602401602060405180830381865afa1580156112f6573d6000803e3d6000fd5b505050506040513d601f19601f8201168201806040525081019061131a9190612367565b6040516370a0823160e01b81523060048201529095506001600160a01b038716906370a0823190602401602060405180830381865afa158015611361573d6000803e3d6000fd5b505050506040513d601f19601f820116820180604052508101906113859190612367565b935061139385858b8b611b3b565b81156113bc57600a546113b8906001600160701b03600160701b8204811691166123ad565b600d555b604080518c8152602081018c90526001600160a01b038e169133917fdccd412f0b1252819cb1fd330b93224ca42612892bb3f4f789976e6d81936496910160405180910390a35050505050505050506001600681905550915091565b60018054610b29906123cc565b33600090815260036020526040812080548391908390611446908490612396565b90915550506001600160a01b038316600081815260036020526040908190208054850190555133906000805160206125c983398151915290610c2f9086815260200190565b6006546001146114ad5760405162461bcd60e51b8152600401610533906122f7565b6002600655600854600954600a546040516370a0823160e01b81523060048201526001600160a01b03938416939092169161154c91849186916001600160701b03169083906370a08231906024015b602060405180830381865afa158015611519573d6000803e3d6000fd5b505050506040513d601f19601f8201168201806040525081019061153d9190612367565b6115479190612396565b611a20565b600a546040516370a0823160e01b81523060048201526115949183918691600160701b90046001600160701b0316906001600160a01b038416906370a08231906024016114fc565b5050600160065550565b428410156115ee5760405162461bcd60e51b815260206004820152601760248201527f5045524d49545f444541444c494e455f455850495245440000000000000000006044820152606401610533565b60006115f8610d20565b6001600160a01b0389811660008181526005602090815260409182902080546001810190915582517f6e71edae12b1b97f4d1f60370fef10105fa2faae0126114a169c64845d6126c98184015280840194909452938c166060840152608083018b905260a083019390935260c08083018a90528151808403909101815260e08301909152805192019190912061190160f01b6101008301526101028201929092526101228101919091526101420160408051601f198184030181528282528051602091820120600080855291840180845281905260ff88169284019290925260608301869052608083018590529092509060019060a0016020604051602081039080840390855afa158015611711573d6000803e3d6000fd5b5050604051601f1901519150506001600160a01b038116158015906117475750886001600160a01b0316816001600160a01b0316145b6117845760405162461bcd60e51b815260206004820152600e60248201526d24a72b20a624a22fa9a4a3a722a960911b6044820152606401610533565b6001600160a01b0390811660009081526004602090815260408083208b8516808552908352928190208a905551898152919350918a16917f8c5be1e5ebec7d5bd14f71427d1e84f3dd0314c0f7b2291e5b200ac8c7c3b925910160405180910390a350505050505050565b60008163ffffffff161161183e5760405162461bcd60e51b8152602060048201526016602482015275041757261506169723a206c6f776572207468656e20360541b6044820152606401610533565b6007546001600160a01b0316331461188e5760405162461bcd60e51b815260206004820152601360248201527220bab930a830b4b91d102327a92124a22222a760691b6044820152606401610533565b6103e88163ffffffff1611156118e05760405162461bcd60e51b815260206004820152601760248201527641757261506169723a20464f5242494444454e5f46454560481b6044820152606401610533565b600e805463ffffffff191663ffffffff92909216919091179055565b60065460011461191e5760405162461bcd60e51b8152600401610533906122f7565b60026006556008546040516370a0823160e01b8152306004820152611a19916001600160a01b0316906370a0823190602401602060405180830381865afa15801561196d573d6000803e3d6000fd5b505050506040513d601f19601f820116820180604052508101906119919190612367565b6009546040516370a0823160e01b81523060048201526001600160a01b03909116906370a0823190602401602060405180830381865afa1580156119d9573d6000803e3d6000fd5b505050506040513d601f19601f820116820180604052508101906119fd9190612367565b600a546001600160701b0380821691600160701b900416611b3b565b6001600655565b604080516001600160a01b038481166024830152604480830185905283518084039091018152606490920183526020820180516001600160e01b031663a9059cbb60e01b1790529151600092839290871691611a7c919061242b565b6000604051808303816000865af19150503d8060008114611ab9576040519150601f19603f3d011682016040523d82523d6000602084013e611abe565b606091505b5091509150818015611ae8575080511580611ae8575080806020019051810190611ae89190612447565b611b345760405162461bcd60e51b815260206004820152601f60248201527f5472616e7366657248656c7065723a205452414e534645525f4641494c4544006044820152606401610533565b5050505050565b6001600160701b038411801590611b5957506001600160701b038311155b611b965760405162461bcd60e51b815260206004820152600e60248201526d417572613a204f564552464c4f5760901b6044820152606401610533565b6000611ba764010000000042612469565b600a54909150600090611bc790600160e01b900463ffffffff168361247d565b905060008163ffffffff16118015611be757506001600160701b03841615155b8015611bfb57506001600160701b03831615155b15611c8a578063ffffffff16611c2385611c1486612052565b6001600160e01b031690612071565b6001600160e01b0316611c3691906123ad565b600b6000828254611c4791906124a2565b909155505063ffffffff8116611c6084611c1487612052565b6001600160e01b0316611c7391906123ad565b600c6000828254611c8491906124a2565b90915550505b600a805463ffffffff8416600160e01b026001600160e01b036001600160701b03898116600160701b9081026001600160e01b03199095168c83161794909417918216831794859055604080519382169282169290921783529290930490911660208201527f1c411e9a96e071241c2f21f7726b17ae89e3cab4c78be50e062b03a9fffbbad1910160405180910390a1505050505050565b60007f8b73c3c69bb8fe3d512ecc4cf759cc79239f7b179b0ffacaa9a75d522b39400f6000604051611d5491906124ba565b6040805191829003822060208301939093528101919091527fc89efdaa54c0f20c7adf612882df0950f5a951637e0307cdcb4c672f298b8bc660608201524660808201523060a082015260c00160405160208183030381529060405280519060200120905090565b600080600760009054906101000a90046001600160a01b03166001600160a01b031663017e7e586040518163ffffffff1660e01b8152600401602060405180830381865afa158015611e12573d6000803e3d6000fd5b505050506040513d601f19601f82011682018060405250810190611e369190612556565b600d546001600160a01b038216158015945091925090611efa578015611ef5576000611e71610f676001600160701b038088169089166123ad565b90506000611e7e83611f0e565b905080821115611ef2576000611e948284612396565b600254611ea191906123ad565b600e549091506000908390611ec490640100000000900463ffffffff16866123ad565b611ece91906124a2565b90506000611edc8284612417565b90508015611eee57611eee8782611f7e565b5050505b50505b611f06565b8015611f06576000600d555b505092915050565b60006003821115611f6f5750806000611f28600283612417565b611f339060016124a2565b90505b81811015611f6957905080600281611f4e8186612417565b611f5891906124a2565b611f629190612417565b9050611f36565b50919050565b8115611f79575060015b919050565b8060026000828254611f9091906124a2565b90915550506001600160a01b0382166000818152600360209081526040808320805486019055518481526000805160206125c983398151915291015b60405180910390a35050565b6000818310611fe75781611fe9565b825b9392505050565b6001600160a01b03821660009081526003602052604081208054839290612018908490612396565b90915550506002805482900390556040518181526000906001600160a01b038416906000805160206125c983398151915290602001611fcc565b600061206b600160701b6001600160701b038416612573565b92915050565b6000611fe96001600160701b038316846125a2565b6001600160a01b038116811461209b57600080fd5b50565b6000806000806000608086880312156120b657600080fd5b853594506020860135935060408601356120cf81612086565b9250606086013567ffffffffffffffff808211156120ec57600080fd5b818801915088601f83011261210057600080fd5b81358181111561210f57600080fd5b89602082850101111561212157600080fd5b9699959850939650602001949392505050565b60006020828403121561214657600080fd5b813563ffffffff81168114611fe957600080fd5b60005b8381101561217557818101518382015260200161215d565b83811115612184576000848401525b50505050565b60208152600082518060208401526121a981604085016020870161215a565b601f01601f19169190910160400192915050565b600080604083850312156121d057600080fd5b82356121db81612086565b946020939093013593505050565b6000806000606084860312156121fe57600080fd5b833561220981612086565b9250602084013561221981612086565b929592945050506040919091013590565b6000806040838503121561223d57600080fd5b823561224881612086565b9150602083013561225881612086565b809150509250929050565b60006020828403121561227557600080fd5b8135611fe981612086565b600080600080600080600060e0888a03121561229b57600080fd5b87356122a681612086565b965060208801356122b681612086565b95506040880135945060608801359350608088013560ff811681146122da57600080fd5b9699959850939692959460a0840135945060c09093013592915050565b6020808252600a90820152695245454e5452414e435960b01b604082015260600190565b60018060a01b038616815284602082015283604082015260806060820152816080820152818360a0830137600081830160a090810191909152601f909201601f19160101949350505050565b60006020828403121561237957600080fd5b5051919050565b634e487b7160e01b600052601160045260246000fd5b6000828210156123a8576123a8612380565b500390565b60008160001904831182151516156123c7576123c7612380565b500290565b600181811c908216806123e057607f821691505b60208210811415611f6957634e487b7160e01b600052602260045260246000fd5b634e487b7160e01b600052601260045260246000fd5b60008261242657612426612401565b500490565b6000825161243d81846020870161215a565b9190910192915050565b60006020828403121561245957600080fd5b81518015158114611fe957600080fd5b60008261247857612478612401565b500690565b600063ffffffff8381169083168181101561249a5761249a612380565b039392505050565b600082198211156124b5576124b5612380565b500190565b600080835481600182811c9150808316806124d657607f831692505b60208084108214156124f657634e487b7160e01b86526022600452602486fd5b81801561250a576001811461251b57612548565b60ff19861689528489019650612548565b60008a81526020902060005b868110156125405781548b820152908501908301612527565b505084890196505b509498975050505050505050565b60006020828403121561256857600080fd5b8151611fe981612086565b60006001600160e01b038281168482168115158284048211161561259957612599612380565b02949350505050565b60006001600160e01b03838116806125bc576125bc612401565b9216919091049291505056feddf252ad1be2c89b69c2b068fc378daa952ba7f163c4a11628f55a4df523b3efa26469706673582212207670c2222a58d6f2c0e423ff108dadcc6b9cad5f55e00c230dc2ab2a6c4aa70664736f6c634300080a0033",
  "immutableReferences": {
    "1144": [
      {
        "length": 32,
        "start": 787
      }
    ],
    "1163": [
      {
        "length": 32,
        "start": 3364
      }
    ],
    "1165": [
      {
        "length": 32,
        "start": 3417
      }
    ]
  },
  "source": "// SPDX-License-Identifier: MIT\npragma solidity >=0.8.0;\n\nimport \"../tokens/AuraLP.sol\";\nimport \"../libraries/UQ112x112.sol\";\nimport \"../libraries/ExtraMath.sol\";\nimport \"../interfaces/IAuraCallee.sol\";\nimport '@uniswap/lib/contracts/libraries/TransferHelper.sol';\nimport \"@rari-capital/solmate/src/utils/ReentrancyGuard.sol\";\nimport \"@openzeppelin/contracts/token/ERC20/IERC20.sol\";\nimport \"@openzeppelin/contracts/utils/math/Math.sol\";\nimport \"@uniswap/v2-core/contracts/interfaces/IUniswapV2Factory.sol\";\n\ncontract AuraPair is AuraLP, ReentrancyGuard {\n    using UQ112x112 for uint224;\n\n    event Mint(address indexed sender, uint amount0, uint amount1);\n    event Burn(address indexed sender, uint amount0, uint amount1, address indexed to);\n    event Swap(\n        address indexed sender,\n        uint amount0In,\n        uint amount1In,\n        uint amount0Out,\n        uint amount1Out,\n        address indexed to\n    );\n    event Sync(uint112 reserve0, uint112 reserve1);\n\n    uint    public constant MINIMUM_LIQUIDITY = 10**3;\n    uint112 public constant MAX_UINT112 = type(uint112).max;\n\n    address public factory;\n    address public token0;\n    address public token1;\n\n    uint112 private reserve0;           // uses single storage slot, accessible via getReserves\n    uint112 private reserve1;           // uses single storage slot, accessible via getReserves\n    uint32  private blockTimestampLast; // uses single storage slot, accessible via getReserves\n\n    uint public price0CumulativeLast;\n    uint public price1CumulativeLast;\n    uint public kLast; // reserve0 * reserve1, as of immediately after the most recent liquidity event\n    \n    uint32 public swapFee = 2; // uses 0.2% default\n    uint32 public devFee  = 5; // uses 0.5% default from swap fee\n\n    function getReserves() public view returns (uint112 _reserve0, uint112 _reserve1, uint32 _blockTimestampLast) {\n        _reserve0 = reserve0;\n        _reserve1 = reserve1;\n        _blockTimestampLast = blockTimestampLast;\n    }\n\n    constructor() {\n        factory = msg.sender;\n    }\n\n    // called once by the factory at time of deployment\n    function initialize(address _token0, address _token1) external {\n        require(msg.sender == factory, 'Aura FORBIDDEN'); // sufficient check\n        token0 = _token0;\n        token1 = _token1;\n    }\n\n    function setSwapFee(uint32 _swapFee) external {\n        require(_swapFee > 0, \"AuraPair: lower then 0\");\n        require(msg.sender == factory, 'AuraPair: FORBIDDEN');\n        require(_swapFee <= 1000, 'AuraPair: FORBIDDEN_FEE');\n        swapFee = _swapFee;\n    }\n    \n    function setDevFee(uint32 _devFee) external {\n        require(_devFee > 0, \"AuraPair: lower then 0\");\n        require(msg.sender == factory, 'AuraPair: FORBIDDEN');\n        require(_devFee <= 500, 'AuraPair: FORBIDDEN_FEE');\n        devFee = _devFee;\n    }\n\n    // update reserves and, on the first call per block, price accumulators\n    function _update(uint balance0, uint balance1, uint112 _reserve0, uint112 _reserve1) private {\n        require(balance0 <= type(uint112).max && balance1 <= MAX_UINT112, 'Aura: OVERFLOW');\n        uint32 blockTimestamp = uint32(block.timestamp % 2**32);\n        uint32 timeElapsed = blockTimestamp - blockTimestampLast; // overflow is desired\n        if (timeElapsed > 0 && _reserve0 != 0 && _reserve1 != 0) {\n            // * never overflows, and + overflow is desired\n            price0CumulativeLast += uint(UQ112x112.encode(_reserve1).uqdiv(_reserve0)) * timeElapsed;\n            price1CumulativeLast += uint(UQ112x112.encode(_reserve0).uqdiv(_reserve1)) * timeElapsed;\n        }\n        reserve0 = uint112(balance0);\n        reserve1 = uint112(balance1);\n        blockTimestampLast = blockTimestamp;\n        emit Sync(reserve0, reserve1);\n    }\n\n    // if fee is on, mint liquidity equivalent to 1/6th of the growth in sqrt(k)\n    function _mintFee(uint112 _reserve0, uint112 _reserve1) private returns (bool feeOn) {\n        address feeTo = IUniswapV2Factory(factory).feeTo();\n        feeOn = feeTo != address(0);\n        uint _kLast = kLast; // gas savings\n        if (feeOn) {\n            if (_kLast != 0) {\n                uint rootK = ExtraMath.sqrt(uint(_reserve0) * _reserve1);\n                uint rootKLast = ExtraMath.sqrt(_kLast);\n                if (rootK > rootKLast) {\n                    uint numerator = totalSupply * (rootK - rootKLast);\n                    uint denominator = rootK * devFee + rootKLast;\n                    uint liquidity = numerator / denominator;\n                    if (liquidity > 0) _mint(feeTo, liquidity);\n                }\n            }\n        } else if (_kLast != 0) {\n            kLast = 0;\n        }\n    }\n\n    // this low-level function should be called from a contract which performs important safety checks\n    function mint(address to) public nonReentrant returns (uint liquidity) {\n        (uint112 _reserve0, uint112 _reserve1,) = getReserves(); // gas savings\n        uint balance0 = IERC20(token0).balanceOf(address(this));\n        uint balance1 = IERC20(token1).balanceOf(address(this));\n        uint amount0 = balance0 - _reserve0;\n        uint amount1 = balance1 - _reserve1;\n\n        bool feeOn = _mintFee(_reserve0, _reserve1);\n        uint _totalSupply = totalSupply; // gas savings, must be defined here since totalSupply can update in _mintFee\n        if (_totalSupply == 0) {\n            liquidity = ExtraMath.sqrt(amount0 * amount1) - MINIMUM_LIQUIDITY;\n           _mint(address(0), MINIMUM_LIQUIDITY); // permanently lock the first MINIMUM_LIQUIDITY tokens\n        } else {\n            liquidity = Math.min(amount0 * _totalSupply / _reserve0, amount1 * _totalSupply / _reserve1);\n        }\n        require(liquidity > 0, 'Aura INSUFFICIENT_LIQUIDITY_MINTED');\n        _mint(to, liquidity);\n\n        _update(balance0, balance1, _reserve0, _reserve1);\n        if (feeOn) kLast = uint(reserve0) * reserve1; // reserve0 and reserve1 are up-to-date\n        emit Mint(msg.sender, amount0, amount1);\n    }\n\n    // this low-level function should be called from a contract which performs important safety checks\n    function burn(address to) external nonReentrant returns (uint amount0, uint amount1) {\n        (uint112 _reserve0, uint112 _reserve1,) = getReserves(); // gas savings\n        address _token0 = token0;                                // gas savings\n        address _token1 = token1;                                // gas savings\n        uint balance0 = IERC20(_token0).balanceOf(address(this));\n        uint balance1 = IERC20(_token1).balanceOf(address(this));\n        uint liquidity = balanceOf[address(this)];\n\n        bool feeOn = _mintFee(_reserve0, _reserve1);\n        uint _totalSupply = totalSupply; // gas savings, must be defined here since totalSupply can update in _mintFee\n        amount0 = liquidity * balance0 / _totalSupply; // using balances ensures pro-rata distribution\n        amount1 = liquidity * balance1 / _totalSupply; // using balances ensures pro-rata distribution\n        require(amount0 > 0 && amount1 > 0, 'Aura INSUFFICIENT_LIQUIDITY_BURNED');\n        _burn(address(this), liquidity);\n        TransferHelper.safeTransfer(_token0, to, amount0);\n        TransferHelper.safeTransfer(_token1, to, amount1);\n        balance0 = IERC20(_token0).balanceOf(address(this));\n        balance1 = IERC20(_token1).balanceOf(address(this));\n\n        _update(balance0, balance1, _reserve0, _reserve1);\n        if (feeOn) kLast = uint(reserve0) * reserve1; // reserve0 and reserve1 are up-to-date\n        emit Burn(msg.sender, amount0, amount1, to);\n    }\n\n    // this low-level function should be called from a contract which performs important safety checks\n    function swap(uint amount0Out, uint amount1Out, address to, bytes calldata data) external nonReentrant {\n        require(amount0Out > 0 || amount1Out > 0, 'Aura INSUFFICIENT_OUTPUT_AMOUNT');\n        (uint112 _reserve0, uint112 _reserve1,) = getReserves(); // gas savings\n        require(amount0Out < _reserve0 && amount1Out < _reserve1, 'Aura INSUFFICIENT_LIQUIDITY');\n\n        uint balance0;\n        uint balance1;\n        { // scope for _token{0,1}, avoids stack too deep errors\n            address _token0 = token0;\n            address _token1 = token1;\n            require(to != _token0 && to != _token1, 'Aura INVALID_TO');\n            if (amount0Out > 0) TransferHelper.safeTransfer(_token0, to, amount0Out);\n            if (amount1Out > 0) TransferHelper.safeTransfer(_token1, to, amount1Out);\n            if (data.length > 0) IAuraCallee(to).AuraCall(msg.sender, amount0Out, amount1Out, data);\n            balance0 = IERC20(_token0).balanceOf(address(this));\n            balance1 = IERC20(_token1).balanceOf(address(this));\n        }\n\n        uint amount0In = balance0 > _reserve0 - amount0Out ? balance0 - (_reserve0 - amount0Out) : 0;\n        uint amount1In = balance1 > _reserve1 - amount1Out ? balance1 - (_reserve1 - amount1Out) : 0;\n        require(amount0In > 0 || amount1In > 0, 'Aura INSUFFICIENT_INPUT_AMOUNT');\n        { // scope for reserve{0,1}Adjusted, avoids stack too deep errors\n            uint _swapFee = swapFee;\n            uint balance0Adjusted = balance0 * (1000) - (amount0In * _swapFee);\n            uint balance1Adjusted = balance1 * (1000) - (amount1In * _swapFee);\n            require(balance0Adjusted * balance1Adjusted >= uint(_reserve0) * (_reserve1) * (1000**2), 'Aura K');\n        }\n\n        _update(balance0, balance1, _reserve0, _reserve1);\n        emit Swap(msg.sender, amount0In, amount1In, amount0Out, amount1Out, to);\n    }\n\n    // force balances to match reserves\n    function skim(address to) external nonReentrant {\n        address _token0 = token0; // gas savings\n        address _token1 = token1; // gas savings\n        TransferHelper.safeTransfer(_token0, to, IERC20(_token0).balanceOf(address(this)) - reserve0);\n        TransferHelper.safeTransfer(_token1, to, IERC20(_token1).balanceOf(address(this)) - reserve1);\n    }\n\n    // force reserves to match balances\n    function sync() external nonReentrant {\n        _update(IERC20(token0).balanceOf(address(this)), IERC20(token1).balanceOf(address(this)), reserve0, reserve1);\n    }\n}\n",
  "sourcePath": "/Users/ericboris/Developer/aura/contracts/swaps/AuraPair.sol",
  "compiler": {
    "name": "solc",
    "version": "0.8.10+commit.fc410830.Emscripten.clang"
  },
  "schemaVersion": "3.4.4",
  "updatedAt": "2022-01-22T05:17:27.850Z",
  "devdoc": {
    "kind": "dev",
    "methods": {},
    "version": 1
  },
  "userdoc": {
    "kind": "user",
    "methods": {},
    "version": 1
  }
}