{
  "contractName": "AuraMigrator",
  "abi": [
    {
      "inputs": [
        {
          "internalType": "address",
          "name": "_router",
          "type": "address"
        }
      ],
      "stateMutability": "nonpayable",
      "type": "constructor"
    },
    {
      "anonymous": false,
      "inputs": [
        {
          "indexed": true,
          "internalType": "address",
          "name": "sender",
          "type": "address"
        },
        {
          "indexed": true,
          "internalType": "address",
          "name": "externalRouter",
          "type": "address"
        },
        {
          "indexed": false,
          "internalType": "uint256",
          "name": "exLiquidity",
          "type": "uint256"
        },
        {
          "indexed": false,
          "internalType": "uint256",
          "name": "exBalanceTokenA",
          "type": "uint256"
        },
        {
          "indexed": false,
          "internalType": "uint256",
          "name": "exBalanceTokenB",
          "type": "uint256"
        },
        {
          "indexed": false,
          "internalType": "uint256",
          "name": "liquidity",
          "type": "uint256"
        },
        {
          "indexed": false,
          "internalType": "uint256",
          "name": "balanceTokenA",
          "type": "uint256"
        },
        {
          "indexed": false,
          "internalType": "uint256",
          "name": "balanceTokenB",
          "type": "uint256"
        }
      ],
      "name": "MigrateLiquidity",
      "type": "event"
    },
    {
      "anonymous": false,
      "inputs": [
        {
          "indexed": true,
          "internalType": "address",
          "name": "previousOwner",
          "type": "address"
        },
        {
          "indexed": true,
          "internalType": "address",
          "name": "newOwner",
          "type": "address"
        }
      ],
      "name": "OwnershipTransferred",
      "type": "event"
    },
    {
      "inputs": [],
      "name": "owner",
      "outputs": [
        {
          "internalType": "address",
          "name": "",
          "type": "address"
        }
      ],
      "stateMutability": "view",
      "type": "function"
    },
    {
      "inputs": [],
      "name": "renounceOwnership",
      "outputs": [],
      "stateMutability": "nonpayable",
      "type": "function"
    },
    {
      "inputs": [],
      "name": "router",
      "outputs": [
        {
          "internalType": "contract IAuraV2Router02",
          "name": "",
          "type": "address"
        }
      ],
      "stateMutability": "view",
      "type": "function"
    },
    {
      "inputs": [
        {
          "internalType": "address",
          "name": "newOwner",
          "type": "address"
        }
      ],
      "name": "transferOwnership",
      "outputs": [],
      "stateMutability": "nonpayable",
      "type": "function"
    },
    {
      "inputs": [
        {
          "internalType": "address",
          "name": "tokenA",
          "type": "address"
        },
        {
          "internalType": "address",
          "name": "tokenB",
          "type": "address"
        },
        {
          "internalType": "address",
          "name": "lpToken",
          "type": "address"
        },
        {
          "internalType": "address",
          "name": "externalRouter",
          "type": "address"
        }
      ],
      "name": "migrateLiquidity",
      "outputs": [
        {
          "internalType": "bool",
          "name": "",
          "type": "bool"
        }
      ],
      "stateMutability": "nonpayable",
      "type": "function"
    },
    {
      "inputs": [
        {
          "internalType": "address",
          "name": "_router",
          "type": "address"
        }
      ],
      "name": "setRouter",
      "outputs": [],
      "stateMutability": "nonpayable",
      "type": "function"
    }
  ],
  "bytecode": "0x608060405234801561001057600080fd5b50604051610c07380380610c0783398101604081905261002f9161017a565b61003833610047565b61004181610097565b506101aa565b600080546001600160a01b038381166001600160a01b0319831681178455604051919092169283917f8be0079c531659141344cd1fd0a4f28419497f9722a3daafe3b4186f6b6457e09190a35050565b6000546001600160a01b031633146100f65760405162461bcd60e51b815260206004820181905260248201527f4f776e61626c653a2063616c6c6572206973206e6f7420746865206f776e657260448201526064015b60405180910390fd5b6001600160a01b0381166101585760405162461bcd60e51b8152602060048201526024808201527f417572614d69677261746f723a20526f757465722061646472657373206973206044820152635a65726f60e01b60648201526084016100ed565b600180546001600160a01b0319166001600160a01b0392909216919091179055565b60006020828403121561018c57600080fd5b81516001600160a01b03811681146101a357600080fd5b9392505050565b610a4e806101b96000396000f3fe608060405234801561001057600080fd5b50600436106100625760003560e01c8063715018a6146100675780638da5cb5b14610071578063c0d786551461009b578063e58bfdde146100ae578063f2fde38b146100d1578063f887ea40146100e4575b600080fd5b61006f6100f7565b005b6000546001600160a01b03165b6040516001600160a01b0390911681526020015b60405180910390f35b61006f6100a93660046108e0565b610136565b6100c16100bc366004610902565b6101e4565b6040519015158152602001610092565b61006f6100df3660046108e0565b6107d9565b60015461007e906001600160a01b031681565b6000546001600160a01b0316331461012a5760405162461bcd60e51b815260040161012190610956565b60405180910390fd5b6101346000610874565b565b6000546001600160a01b031633146101605760405162461bcd60e51b815260040161012190610956565b6001600160a01b0381166101c25760405162461bcd60e51b8152602060048201526024808201527f417572614d69677261746f723a20526f757465722061646472657373206973206044820152635a65726f60e01b6064820152608401610121565b600180546001600160a01b0319166001600160a01b0392909216919091179055565b6040516370a0823160e01b815233600482015260009081906001600160a01b038516906370a0823190602401602060405180830381865afa15801561022d573d6000803e3d6000fd5b505050506040513d601f19601f82011682018060405250810190610251919061098b565b9050600081116102b65760405162461bcd60e51b815260206004820152602a60248201527f6d6967726174654c69717569646974793a2063616c6c657220686173206e6f206044820152696c702062616c616e636560b01b6064820152608401610121565b6040516323b872dd60e01b8152336004820152306024820152604481018290526001600160a01b038516906323b872dd906064016020604051808303816000875af1158015610309573d6000803e3d6000fd5b505050506040513d601f19601f8201168201806040525081019061032d91906109a4565b61038b5760405162461bcd60e51b815260206004820152602960248201527f6d6967726174654c69717569646974793a206c70207472616e736665722066726044820152681bdb4819985a5b195960ba1b6064820152608401610121565b60405163095ea7b360e01b81526001600160a01b0384811660048301526024820183905285169063095ea7b3906044016020604051808303816000875af11580156103da573d6000803e3d6000fd5b505050506040513d601f19601f820116820180604052508101906103fe91906109a4565b6104605760405162461bcd60e51b815260206004820152602d60248201527f6d6967726174654c69717569646974793a2065787465726e616c206c7020617060448201526c1c1c9bdd985b0819985a5b1959609a1b6064820152608401610121565b604051635d5155ef60e11b81526001600160a01b038781166004830152868116602483015260448201839052600060648301819052608483018190523060a48401524260c484015291829186169063baa2abde9060e40160408051808303816000875af11580156104d5573d6000803e3d6000fd5b505050506040513d601f19601f820116820180604052508101906104f991906109c6565b60015460405163095ea7b360e01b81526001600160a01b0391821660048201526024810184905292945090925089169063095ea7b3906044016020604051808303816000875af1158015610551573d6000803e3d6000fd5b505050506040513d601f19601f8201168201806040525081019061057591906109a4565b6105da5760405162461bcd60e51b815260206004820152603060248201527f6d6967726174654c69717569646974793a20746f6b656e204120726f7574657260448201526f08185c1c1c9bdd985b0819985a5b195960821b6064820152608401610121565b60015460405163095ea7b360e01b81526001600160a01b039182166004820152602481018390529088169063095ea7b3906044016020604051808303816000875af115801561062d573d6000803e3d6000fd5b505050506040513d601f19601f8201168201806040525081019061065191906109a4565b6106b65760405162461bcd60e51b815260206004820152603060248201527f6d6967726174654c69717569646974793a20746f6b656e204220726f7574657260448201526f08185c1c1c9bdd985b0819985a5b195960821b6064820152608401610121565b60015460405162e8e33760e81b81526001600160a01b038a811660048301528981166024830152604482018590526064820184905260006084830181905260a483018190523360c48401524260e484015292839283929091169063e8e3370090610104016060604051808303816000875af1158015610739573d6000803e3d6000fd5b505050506040513d601f19601f8201168201806040525081019061075d91906109ea565b604080518a8152602081018a9052908101889052606081018290526080810184905260a0810183905292955090935091506001600160a01b0389169033907f85b175664fdeea63a59518f7cb7c346a8ce8e4b1070886f33dfb57ac0887a09a9060c00160405180910390a35060019a9950505050505050505050565b6000546001600160a01b031633146108035760405162461bcd60e51b815260040161012190610956565b6001600160a01b0381166108685760405162461bcd60e51b815260206004820152602660248201527f4f776e61626c653a206e6577206f776e657220697320746865207a65726f206160448201526564647265737360d01b6064820152608401610121565b61087181610874565b50565b600080546001600160a01b038381166001600160a01b0319831681178455604051919092169283917f8be0079c531659141344cd1fd0a4f28419497f9722a3daafe3b4186f6b6457e09190a35050565b80356001600160a01b03811681146108db57600080fd5b919050565b6000602082840312156108f257600080fd5b6108fb826108c4565b9392505050565b6000806000806080858703121561091857600080fd5b610921856108c4565b935061092f602086016108c4565b925061093d604086016108c4565b915061094b606086016108c4565b905092959194509250565b6020808252818101527f4f776e61626c653a2063616c6c6572206973206e6f7420746865206f776e6572604082015260600190565b60006020828403121561099d57600080fd5b5051919050565b6000602082840312156109b657600080fd5b815180151581146108fb57600080fd5b600080604083850312156109d957600080fd5b505080516020909101519092909150565b6000806000606084860312156109ff57600080fd5b835192506020840151915060408401519050925092509256fea2646970667358221220accf49ba94f8172d9a5ef92f4cb532bf7d774edf57dd80a2953e49aa213d12a364736f6c634300080a0033",
  "immutableReferences": {},
  "source": "// SPDX-License-Identifier: MIT\npragma solidity >=0.8.0;\n\nimport '@openzeppelin/contracts/token/ERC20/IERC20.sol';\nimport '@openzeppelin/contracts/access/Ownable.sol';\nimport '../interfaces/IAuraMigrator.sol';\nimport '../interfaces/IAuraV2Router02.sol';\nimport '../interfaces/IExternalRouter.sol';\n\ncontract AuraMigrator is IAuraMigrator, Ownable {\n    IAuraV2Router02 public router;\n\n    constructor(address _router) {\n        setRouter(_router);\n    }\n\n    event MigrateLiquidity(\n        address indexed sender,             // Migrate liquidity function caller\n        address indexed externalRouter,     // External DEX's router\n        uint exLiquidity,                   // Liquidity in external DEX\n        uint exBalanceTokenA,               // Token A balance in external DEX\n        uint exBalanceTokenB,               // Token B balance in external DEX\n        uint liquidity,                     // Liquidity moved to DEX\n        uint balanceTokenA,                 // Token A balance moved to DEX\n        uint balanceTokenB                  // Token B balance moved to DEX\n    );\n\n    /** \n     * @notice Migrate liquidity pair (tokenA, tokenB) from external DEX to this DEX.\n     */\n    function migrateLiquidity(address tokenA, address tokenB, address lpToken, address externalRouter) external returns(bool) {\n        // Transfer the caller's external liquidity balance to this contract.\n        uint exLiquidity = IERC20(lpToken).balanceOf(msg.sender);\n        require(exLiquidity > 0, 'migrateLiquidity: caller has no lp balance');\n        require(IERC20(lpToken).transferFrom(msg.sender, address(this), exLiquidity), 'migrateLiquidity: lp transfer from failed');\n\n        // Approve external router to spend up to `exLiquidity` amount of the liquidity.\n        require(IERC20(lpToken).approve(externalRouter, exLiquidity), 'migrateLiquidity: external lp approval failed');\n\n        // Remove the token balances from the external exchange.\n        (uint exBalanceTokenA, uint exBalanceTokenB) = IExternalRouter(externalRouter).removeLiquidity(\n            tokenA,             // address of tokenA\n            tokenB,             // address of tokenB\n            exLiquidity,        // amount of liquidity to remove\n            0,                  // minimum amount of A\n            0,                  // minimum amount of B\n            address(this),      // recipient of underlying assets\n            block.timestamp     // deadline until tx revert\n        );\n\n        // Approve this router to spend up to the external token balances.\n        require(IERC20(tokenA).approve(address(router), exBalanceTokenA), 'migrateLiquidity: token A router approval failed');\n        require(IERC20(tokenB).approve(address(router), exBalanceTokenB), 'migrateLiquidity: token B router approval failed');\n\n        // Move the external token balances to this exchange.\n        // Note: addLiquidity handles adding token pair to factory.\n        (uint balanceTokenA, uint balanceTokenB, uint liquidity) = router.addLiquidity(\n            tokenA,             // address of token A\n            tokenB,             // address of token B\n            exBalanceTokenA,    // desired amount of A\n            exBalanceTokenB,    // desired amount of B\n            0,                  // minimum amount of A\n            0,                  // minimum amount of B\n            msg.sender,         // liquidity tokens recipient\n            block.timestamp     // deadline until tx revert\n        ); \n\n        // Log relevant migration details.\n        emit MigrateLiquidity(\n            msg.sender,\n            externalRouter,\n            exLiquidity,\n            exBalanceTokenA,\n            exBalanceTokenB,\n            liquidity,\n            balanceTokenA,\n            balanceTokenB\n        );\n\n        return true;\n    }\n\n    /**\n     * @notice Set the router address.\n     */\n    function setRouter(address _router) public onlyOwner {\n        require(_router != address(0), 'AuraMigrator: Router address is Zero');\n        router = IAuraV2Router02(_router);\n    }\n}\n",
  "sourcePath": "/Users/ericboris/Developer/aura/contracts/migration/AuraMigrator.sol",
  "compiler": {
    "name": "solc",
    "version": "0.8.10+commit.fc410830.Emscripten.clang"
  },
  "schemaVersion": "3.4.4",
  "updatedAt": "2022-02-05T00:16:21.568Z",
  "devdoc": {
    "kind": "dev",
    "methods": {
      "owner()": {
        "details": "Returns the address of the current owner."
      },
      "renounceOwnership()": {
        "details": "Leaves the contract without owner. It will not be possible to call `onlyOwner` functions anymore. Can only be called by the current owner. NOTE: Renouncing ownership will leave the contract without an owner, thereby removing any functionality that is only available to the owner."
      },
      "transferOwnership(address)": {
        "details": "Transfers ownership of the contract to a new account (`newOwner`). Can only be called by the current owner."
      }
    },
    "version": 1
  },
  "userdoc": {
    "kind": "user",
    "methods": {
      "migrateLiquidity(address,address,address,address)": {
        "notice": "Migrate liquidity pair (tokenA, tokenB) from external DEX to this DEX."
      },
      "setRouter(address)": {
        "notice": "Set the router address."
      }
    },
    "version": 1
  }
}