{
  "contractName": "AuraRouterV1",
  "abi": [
    {
      "inputs": [
        {
          "internalType": "address",
          "name": "factory_",
          "type": "address"
        },
        {
          "internalType": "address",
          "name": "WETH_",
          "type": "address"
        }
      ],
      "stateMutability": "nonpayable",
      "type": "constructor"
    },
    {
      "anonymous": false,
      "inputs": [
        {
          "indexed": true,
          "internalType": "address",
          "name": "previousOwner",
          "type": "address"
        },
        {
          "indexed": true,
          "internalType": "address",
          "name": "newOwner",
          "type": "address"
        }
      ],
      "name": "OwnershipTransferred",
      "type": "event"
    },
    {
      "inputs": [],
      "name": "_WETH",
      "outputs": [
        {
          "internalType": "address",
          "name": "",
          "type": "address"
        }
      ],
      "stateMutability": "view",
      "type": "function"
    },
    {
      "inputs": [],
      "name": "_factory",
      "outputs": [
        {
          "internalType": "address",
          "name": "",
          "type": "address"
        }
      ],
      "stateMutability": "view",
      "type": "function"
    },
    {
      "inputs": [],
      "name": "owner",
      "outputs": [
        {
          "internalType": "address",
          "name": "",
          "type": "address"
        }
      ],
      "stateMutability": "view",
      "type": "function"
    },
    {
      "inputs": [],
      "name": "renounceOwnership",
      "outputs": [],
      "stateMutability": "nonpayable",
      "type": "function"
    },
    {
      "inputs": [],
      "name": "swapFeeReward",
      "outputs": [
        {
          "internalType": "address",
          "name": "",
          "type": "address"
        }
      ],
      "stateMutability": "view",
      "type": "function"
    },
    {
      "inputs": [
        {
          "internalType": "address",
          "name": "newOwner",
          "type": "address"
        }
      ],
      "name": "transferOwnership",
      "outputs": [],
      "stateMutability": "nonpayable",
      "type": "function"
    },
    {
      "stateMutability": "payable",
      "type": "receive"
    },
    {
      "inputs": [],
      "name": "factory",
      "outputs": [
        {
          "internalType": "address",
          "name": "",
          "type": "address"
        }
      ],
      "stateMutability": "view",
      "type": "function"
    },
    {
      "inputs": [],
      "name": "WETH",
      "outputs": [
        {
          "internalType": "address",
          "name": "",
          "type": "address"
        }
      ],
      "stateMutability": "view",
      "type": "function"
    },
    {
      "inputs": [
        {
          "internalType": "address",
          "name": "_swapFeeReward",
          "type": "address"
        }
      ],
      "name": "setSwapFeeReward",
      "outputs": [],
      "stateMutability": "nonpayable",
      "type": "function"
    },
    {
      "inputs": [
        {
          "internalType": "address",
          "name": "tokenA",
          "type": "address"
        },
        {
          "internalType": "address",
          "name": "tokenB",
          "type": "address"
        },
        {
          "internalType": "uint256",
          "name": "amountADesired",
          "type": "uint256"
        },
        {
          "internalType": "uint256",
          "name": "amountBDesired",
          "type": "uint256"
        },
        {
          "internalType": "uint256",
          "name": "amountAMin",
          "type": "uint256"
        },
        {
          "internalType": "uint256",
          "name": "amountBMin",
          "type": "uint256"
        },
        {
          "internalType": "address",
          "name": "to",
          "type": "address"
        },
        {
          "internalType": "uint256",
          "name": "deadline",
          "type": "uint256"
        }
      ],
      "name": "addLiquidity",
      "outputs": [
        {
          "internalType": "uint256",
          "name": "amountA",
          "type": "uint256"
        },
        {
          "internalType": "uint256",
          "name": "amountB",
          "type": "uint256"
        },
        {
          "internalType": "uint256",
          "name": "liquidity",
          "type": "uint256"
        }
      ],
      "stateMutability": "nonpayable",
      "type": "function"
    },
    {
      "inputs": [
        {
          "internalType": "address",
          "name": "token",
          "type": "address"
        },
        {
          "internalType": "uint256",
          "name": "amountTokenDesired",
          "type": "uint256"
        },
        {
          "internalType": "uint256",
          "name": "amountTokenMin",
          "type": "uint256"
        },
        {
          "internalType": "uint256",
          "name": "amountETHMin",
          "type": "uint256"
        },
        {
          "internalType": "address",
          "name": "to",
          "type": "address"
        },
        {
          "internalType": "uint256",
          "name": "deadline",
          "type": "uint256"
        }
      ],
      "name": "addLiquidityETH",
      "outputs": [
        {
          "internalType": "uint256",
          "name": "amountToken",
          "type": "uint256"
        },
        {
          "internalType": "uint256",
          "name": "amountETH",
          "type": "uint256"
        },
        {
          "internalType": "uint256",
          "name": "liquidity",
          "type": "uint256"
        }
      ],
      "stateMutability": "payable",
      "type": "function"
    },
    {
      "inputs": [
        {
          "internalType": "address",
          "name": "tokenA",
          "type": "address"
        },
        {
          "internalType": "address",
          "name": "tokenB",
          "type": "address"
        },
        {
          "internalType": "uint256",
          "name": "liquidity",
          "type": "uint256"
        },
        {
          "internalType": "uint256",
          "name": "amountAMin",
          "type": "uint256"
        },
        {
          "internalType": "uint256",
          "name": "amountBMin",
          "type": "uint256"
        },
        {
          "internalType": "address",
          "name": "to",
          "type": "address"
        },
        {
          "internalType": "uint256",
          "name": "deadline",
          "type": "uint256"
        }
      ],
      "name": "removeLiquidity",
      "outputs": [
        {
          "internalType": "uint256",
          "name": "amountA",
          "type": "uint256"
        },
        {
          "internalType": "uint256",
          "name": "amountB",
          "type": "uint256"
        }
      ],
      "stateMutability": "nonpayable",
      "type": "function"
    },
    {
      "inputs": [
        {
          "internalType": "address",
          "name": "token",
          "type": "address"
        },
        {
          "internalType": "uint256",
          "name": "liquidity",
          "type": "uint256"
        },
        {
          "internalType": "uint256",
          "name": "amountTokenMin",
          "type": "uint256"
        },
        {
          "internalType": "uint256",
          "name": "amountETHMin",
          "type": "uint256"
        },
        {
          "internalType": "address",
          "name": "to",
          "type": "address"
        },
        {
          "internalType": "uint256",
          "name": "deadline",
          "type": "uint256"
        }
      ],
      "name": "removeLiquidityETH",
      "outputs": [
        {
          "internalType": "uint256",
          "name": "amountToken",
          "type": "uint256"
        },
        {
          "internalType": "uint256",
          "name": "amountETH",
          "type": "uint256"
        }
      ],
      "stateMutability": "nonpayable",
      "type": "function"
    },
    {
      "inputs": [
        {
          "internalType": "address",
          "name": "tokenA",
          "type": "address"
        },
        {
          "internalType": "address",
          "name": "tokenB",
          "type": "address"
        },
        {
          "internalType": "uint256",
          "name": "liquidity",
          "type": "uint256"
        },
        {
          "internalType": "uint256",
          "name": "amountAMin",
          "type": "uint256"
        },
        {
          "internalType": "uint256",
          "name": "amountBMin",
          "type": "uint256"
        },
        {
          "internalType": "address",
          "name": "to",
          "type": "address"
        },
        {
          "internalType": "uint256",
          "name": "deadline",
          "type": "uint256"
        },
        {
          "internalType": "bool",
          "name": "approveMax",
          "type": "bool"
        },
        {
          "internalType": "uint8",
          "name": "v",
          "type": "uint8"
        },
        {
          "internalType": "bytes32",
          "name": "r",
          "type": "bytes32"
        },
        {
          "internalType": "bytes32",
          "name": "s",
          "type": "bytes32"
        }
      ],
      "name": "removeLiquidityWithPermit",
      "outputs": [
        {
          "internalType": "uint256",
          "name": "amountA",
          "type": "uint256"
        },
        {
          "internalType": "uint256",
          "name": "amountB",
          "type": "uint256"
        }
      ],
      "stateMutability": "nonpayable",
      "type": "function"
    },
    {
      "inputs": [
        {
          "internalType": "address",
          "name": "token",
          "type": "address"
        },
        {
          "internalType": "uint256",
          "name": "liquidity",
          "type": "uint256"
        },
        {
          "internalType": "uint256",
          "name": "amountTokenMin",
          "type": "uint256"
        },
        {
          "internalType": "uint256",
          "name": "amountETHMin",
          "type": "uint256"
        },
        {
          "internalType": "address",
          "name": "to",
          "type": "address"
        },
        {
          "internalType": "uint256",
          "name": "deadline",
          "type": "uint256"
        },
        {
          "internalType": "bool",
          "name": "approveMax",
          "type": "bool"
        },
        {
          "internalType": "uint8",
          "name": "v",
          "type": "uint8"
        },
        {
          "internalType": "bytes32",
          "name": "r",
          "type": "bytes32"
        },
        {
          "internalType": "bytes32",
          "name": "s",
          "type": "bytes32"
        }
      ],
      "name": "removeLiquidityETHWithPermit",
      "outputs": [
        {
          "internalType": "uint256",
          "name": "amountToken",
          "type": "uint256"
        },
        {
          "internalType": "uint256",
          "name": "amountETH",
          "type": "uint256"
        }
      ],
      "stateMutability": "nonpayable",
      "type": "function"
    },
    {
      "inputs": [
        {
          "internalType": "address",
          "name": "token",
          "type": "address"
        },
        {
          "internalType": "uint256",
          "name": "liquidity",
          "type": "uint256"
        },
        {
          "internalType": "uint256",
          "name": "amountTokenMin",
          "type": "uint256"
        },
        {
          "internalType": "uint256",
          "name": "amountETHMin",
          "type": "uint256"
        },
        {
          "internalType": "address",
          "name": "to",
          "type": "address"
        },
        {
          "internalType": "uint256",
          "name": "deadline",
          "type": "uint256"
        }
      ],
      "name": "removeLiquidityETHSupportingFeeOnTransferTokens",
      "outputs": [
        {
          "internalType": "uint256",
          "name": "amountETH",
          "type": "uint256"
        }
      ],
      "stateMutability": "nonpayable",
      "type": "function"
    },
    {
      "inputs": [
        {
          "internalType": "address",
          "name": "token",
          "type": "address"
        },
        {
          "internalType": "uint256",
          "name": "liquidity",
          "type": "uint256"
        },
        {
          "internalType": "uint256",
          "name": "amountTokenMin",
          "type": "uint256"
        },
        {
          "internalType": "uint256",
          "name": "amountETHMin",
          "type": "uint256"
        },
        {
          "internalType": "address",
          "name": "to",
          "type": "address"
        },
        {
          "internalType": "uint256",
          "name": "deadline",
          "type": "uint256"
        },
        {
          "internalType": "bool",
          "name": "approveMax",
          "type": "bool"
        },
        {
          "internalType": "uint8",
          "name": "v",
          "type": "uint8"
        },
        {
          "internalType": "bytes32",
          "name": "r",
          "type": "bytes32"
        },
        {
          "internalType": "bytes32",
          "name": "s",
          "type": "bytes32"
        }
      ],
      "name": "removeLiquidityETHWithPermitSupportingFeeOnTransferTokens",
      "outputs": [
        {
          "internalType": "uint256",
          "name": "amountETH",
          "type": "uint256"
        }
      ],
      "stateMutability": "nonpayable",
      "type": "function"
    },
    {
      "inputs": [
        {
          "internalType": "uint256",
          "name": "amountIn",
          "type": "uint256"
        },
        {
          "internalType": "uint256",
          "name": "amountOutMin",
          "type": "uint256"
        },
        {
          "internalType": "address[]",
          "name": "path",
          "type": "address[]"
        },
        {
          "internalType": "address",
          "name": "to",
          "type": "address"
        },
        {
          "internalType": "uint256",
          "name": "deadline",
          "type": "uint256"
        }
      ],
      "name": "swapExactTokensForTokens",
      "outputs": [
        {
          "internalType": "uint256[]",
          "name": "amounts",
          "type": "uint256[]"
        }
      ],
      "stateMutability": "nonpayable",
      "type": "function"
    },
    {
      "inputs": [
        {
          "internalType": "uint256",
          "name": "amountOut",
          "type": "uint256"
        },
        {
          "internalType": "uint256",
          "name": "amountInMax",
          "type": "uint256"
        },
        {
          "internalType": "address[]",
          "name": "path",
          "type": "address[]"
        },
        {
          "internalType": "address",
          "name": "to",
          "type": "address"
        },
        {
          "internalType": "uint256",
          "name": "deadline",
          "type": "uint256"
        }
      ],
      "name": "swapTokensForExactTokens",
      "outputs": [
        {
          "internalType": "uint256[]",
          "name": "amounts",
          "type": "uint256[]"
        }
      ],
      "stateMutability": "nonpayable",
      "type": "function"
    },
    {
      "inputs": [
        {
          "internalType": "uint256",
          "name": "amountOutMin",
          "type": "uint256"
        },
        {
          "internalType": "address[]",
          "name": "path",
          "type": "address[]"
        },
        {
          "internalType": "address",
          "name": "to",
          "type": "address"
        },
        {
          "internalType": "uint256",
          "name": "deadline",
          "type": "uint256"
        }
      ],
      "name": "swapExactETHForTokens",
      "outputs": [
        {
          "internalType": "uint256[]",
          "name": "amounts",
          "type": "uint256[]"
        }
      ],
      "stateMutability": "payable",
      "type": "function"
    },
    {
      "inputs": [
        {
          "internalType": "uint256",
          "name": "amountOut",
          "type": "uint256"
        },
        {
          "internalType": "uint256",
          "name": "amountInMax",
          "type": "uint256"
        },
        {
          "internalType": "address[]",
          "name": "path",
          "type": "address[]"
        },
        {
          "internalType": "address",
          "name": "to",
          "type": "address"
        },
        {
          "internalType": "uint256",
          "name": "deadline",
          "type": "uint256"
        }
      ],
      "name": "swapTokensForExactETH",
      "outputs": [
        {
          "internalType": "uint256[]",
          "name": "amounts",
          "type": "uint256[]"
        }
      ],
      "stateMutability": "nonpayable",
      "type": "function"
    },
    {
      "inputs": [
        {
          "internalType": "uint256",
          "name": "amountIn",
          "type": "uint256"
        },
        {
          "internalType": "uint256",
          "name": "amountOutMin",
          "type": "uint256"
        },
        {
          "internalType": "address[]",
          "name": "path",
          "type": "address[]"
        },
        {
          "internalType": "address",
          "name": "to",
          "type": "address"
        },
        {
          "internalType": "uint256",
          "name": "deadline",
          "type": "uint256"
        }
      ],
      "name": "swapExactTokensForETH",
      "outputs": [
        {
          "internalType": "uint256[]",
          "name": "amounts",
          "type": "uint256[]"
        }
      ],
      "stateMutability": "nonpayable",
      "type": "function"
    },
    {
      "inputs": [
        {
          "internalType": "uint256",
          "name": "amountOut",
          "type": "uint256"
        },
        {
          "internalType": "address[]",
          "name": "path",
          "type": "address[]"
        },
        {
          "internalType": "address",
          "name": "to",
          "type": "address"
        },
        {
          "internalType": "uint256",
          "name": "deadline",
          "type": "uint256"
        }
      ],
      "name": "swapETHForExactTokens",
      "outputs": [
        {
          "internalType": "uint256[]",
          "name": "amounts",
          "type": "uint256[]"
        }
      ],
      "stateMutability": "payable",
      "type": "function"
    },
    {
      "inputs": [
        {
          "internalType": "uint256",
          "name": "amountIn",
          "type": "uint256"
        },
        {
          "internalType": "uint256",
          "name": "amountOutMin",
          "type": "uint256"
        },
        {
          "internalType": "address[]",
          "name": "path",
          "type": "address[]"
        },
        {
          "internalType": "address",
          "name": "to",
          "type": "address"
        },
        {
          "internalType": "uint256",
          "name": "deadline",
          "type": "uint256"
        }
      ],
      "name": "swapExactTokensForTokensSupportingFeeOnTransferTokens",
      "outputs": [],
      "stateMutability": "nonpayable",
      "type": "function"
    },
    {
      "inputs": [
        {
          "internalType": "uint256",
          "name": "amountOutMin",
          "type": "uint256"
        },
        {
          "internalType": "address[]",
          "name": "path",
          "type": "address[]"
        },
        {
          "internalType": "address",
          "name": "to",
          "type": "address"
        },
        {
          "internalType": "uint256",
          "name": "deadline",
          "type": "uint256"
        }
      ],
      "name": "swapExactETHForTokensSupportingFeeOnTransferTokens",
      "outputs": [],
      "stateMutability": "payable",
      "type": "function"
    },
    {
      "inputs": [
        {
          "internalType": "uint256",
          "name": "amountIn",
          "type": "uint256"
        },
        {
          "internalType": "uint256",
          "name": "amountOutMin",
          "type": "uint256"
        },
        {
          "internalType": "address[]",
          "name": "path",
          "type": "address[]"
        },
        {
          "internalType": "address",
          "name": "to",
          "type": "address"
        },
        {
          "internalType": "uint256",
          "name": "deadline",
          "type": "uint256"
        }
      ],
      "name": "swapExactTokensForETHSupportingFeeOnTransferTokens",
      "outputs": [],
      "stateMutability": "nonpayable",
      "type": "function"
    },
    {
      "inputs": [
        {
          "internalType": "uint256",
          "name": "amountA",
          "type": "uint256"
        },
        {
          "internalType": "uint256",
          "name": "reserveA",
          "type": "uint256"
        },
        {
          "internalType": "uint256",
          "name": "reserveB",
          "type": "uint256"
        }
      ],
      "name": "quote",
      "outputs": [
        {
          "internalType": "uint256",
          "name": "amountB",
          "type": "uint256"
        }
      ],
      "stateMutability": "pure",
      "type": "function"
    },
    {
      "inputs": [
        {
          "internalType": "uint256",
          "name": "amountIn",
          "type": "uint256"
        },
        {
          "internalType": "uint256",
          "name": "reserveIn",
          "type": "uint256"
        },
        {
          "internalType": "uint256",
          "name": "reserveOut",
          "type": "uint256"
        }
      ],
      "name": "getAmountOut",
      "outputs": [
        {
          "internalType": "uint256",
          "name": "amountOut",
          "type": "uint256"
        }
      ],
      "stateMutability": "pure",
      "type": "function"
    },
    {
      "inputs": [
        {
          "internalType": "uint256",
          "name": "amountIn",
          "type": "uint256"
        },
        {
          "internalType": "uint256",
          "name": "reserveIn",
          "type": "uint256"
        },
        {
          "internalType": "uint256",
          "name": "reserveOut",
          "type": "uint256"
        },
        {
          "internalType": "uint256",
          "name": "swapFee",
          "type": "uint256"
        }
      ],
      "name": "getAmountOut",
      "outputs": [
        {
          "internalType": "uint256",
          "name": "amountOut",
          "type": "uint256"
        }
      ],
      "stateMutability": "pure",
      "type": "function"
    },
    {
      "inputs": [
        {
          "internalType": "uint256",
          "name": "amountOut",
          "type": "uint256"
        },
        {
          "internalType": "uint256",
          "name": "reserveIn",
          "type": "uint256"
        },
        {
          "internalType": "uint256",
          "name": "reserveOut",
          "type": "uint256"
        },
        {
          "internalType": "uint256",
          "name": "swapFee",
          "type": "uint256"
        }
      ],
      "name": "getAmountIn",
      "outputs": [
        {
          "internalType": "uint256",
          "name": "amountIn",
          "type": "uint256"
        }
      ],
      "stateMutability": "pure",
      "type": "function"
    },
    {
      "inputs": [
        {
          "internalType": "uint256",
          "name": "amountOut",
          "type": "uint256"
        },
        {
          "internalType": "uint256",
          "name": "reserveIn",
          "type": "uint256"
        },
        {
          "internalType": "uint256",
          "name": "reserveOut",
          "type": "uint256"
        }
      ],
      "name": "getAmountIn",
      "outputs": [
        {
          "internalType": "uint256",
          "name": "amountIn",
          "type": "uint256"
        }
      ],
      "stateMutability": "pure",
      "type": "function"
    },
    {
      "inputs": [
        {
          "internalType": "uint256",
          "name": "amountIn",
          "type": "uint256"
        },
        {
          "internalType": "address[]",
          "name": "path",
          "type": "address[]"
        }
      ],
      "name": "getAmountsOut",
      "outputs": [
        {
          "internalType": "uint256[]",
          "name": "amounts",
          "type": "uint256[]"
        }
      ],
      "stateMutability": "view",
      "type": "function"
    },
    {
      "inputs": [
        {
          "internalType": "uint256",
          "name": "amountOut",
          "type": "uint256"
        },
        {
          "internalType": "address[]",
          "name": "path",
          "type": "address[]"
        }
      ],
      "name": "getAmountsIn",
      "outputs": [
        {
          "internalType": "uint256[]",
          "name": "amounts",
          "type": "uint256[]"
        }
      ],
      "stateMutability": "view",
      "type": "function"
    }
  ],
  "bytecode": "0x60c06040523480156200001157600080fd5b506040516200494b3803806200494b8339810160408190526200003491620000c4565b6200003f3362000057565b6001600160a01b039182166080521660a052620000fc565b600080546001600160a01b038381166001600160a01b0319831681178455604051919092169283917f8be0079c531659141344cd1fd0a4f28419497f9722a3daafe3b4186f6b6457e09190a35050565b80516001600160a01b0381168114620000bf57600080fd5b919050565b60008060408385031215620000d857600080fd5b620000e383620000a7565b9150620000f360208401620000a7565b90509250929050565b60805160a0516146af6200029c60003960008181610202015281816104b401528181610604015281816106fa015281816107490152818161080701528181610a2a01528181610d6101528181610ec1015281816112480152818161132b015281816113d60152818161146901528181611587015281816116150152818161185f01528181611917015281816119a801528181611a2501528181611a9901528181611edd01528181612169015281816121bf015281816121f301528181612288015281816123c1015281816124d3015261256101526000818161055a01528181610590015281816108830152818161095501528181610b1001528181610b4701528181610c3e01528181610ddd01528181610e9f01528181610fd6015281816114e4015281816116470152818161179401528181611acb01528181611ce701528181611e8b01528181611ebb01528181611fe40152818161219d0152818161243c0152818161259301528181612f5a01528181612faa0152818161339801528181613644015281816138fa0152818161399d0152613a1401526146af6000f3fe6080604052600436106101f25760003560e01c80638da5cb5b1161010d578063c5cc6b6a116100a0578063e8e337001161006f578063e8e3370014610626578063f2fde38b14610661578063f305d71914610681578063fb3bdb4114610694578063fbbeedf1146106a757600080fd5b8063c5cc6b6a1461057e578063d06ca61f146105b2578063ded9382a146105d2578063e0af3616146105f257600080fd5b8063af2979eb116100dc578063af2979eb146104f8578063b6f9de9514610518578063baa2abde1461052b578063c45a01551461054b57600080fd5b80638da5cb5b14610453578063a3ddb30b14610485578063ad5c4648146104a5578063ad615dec146104d857600080fd5b8063571fd01211610185578063791ac94711610154578063791ac947146103e05780637ff36ab51461040057806385f8c259146104135780638803dbee1461043357600080fd5b8063571fd0121461036b5780635b0d59841461038b5780635c11d795146103ab578063715018a6146103cb57600080fd5b80632195995c116101c15780632195995c146102eb57806338ed17391461030b5780634a25d94a1461032b57806352707d8c1461034b57600080fd5b806302751cec14610236578063054d50d41461027057806318cbafe51461029e5780631f00ca74146102cb57600080fd5b3661023157336001600160a01b037f0000000000000000000000000000000000000000000000000000000000000000161461022f5761022f613c37565b005b600080fd5b34801561024257600080fd5b50610256610251366004613c72565b6106c7565b604080519283526020830191909152015b60405180910390f35b34801561027c57600080fd5b5061029061028b366004613cd0565b6107c3565b604051908152602001610267565b3480156102aa57600080fd5b506102be6102b9366004613d41565b6107da565b6040516102679190613db4565b3480156102d757600080fd5b506102be6102e6366004613e0e565b610b09565b3480156102f757600080fd5b50610256610306366004613efe565b610b3d565b34801561031757600080fd5b506102be610326366004613d41565b610c16565b34801561033757600080fd5b506102be610346366004613d41565b610d34565b34801561035757600080fd5b50610290610366366004613fa8565b610e72565b34801561037757600080fd5b50610290610386366004613fa8565b610e89565b34801561039757600080fd5b506102906103a6366004613fda565b610e97565b3480156103b757600080fd5b5061022f6103c6366004613d41565b610f84565b3480156103d757600080fd5b5061022f6111e7565b3480156103ec57600080fd5b5061022f6103fb366004613d41565b61121d565b6102be61040e366004614070565b611444565b34801561041f57600080fd5b5061029061042e366004613cd0565b61175d565b34801561043f57600080fd5b506102be61044e366004613d41565b61176c565b34801561045f57600080fd5b506000546001600160a01b03165b6040516001600160a01b039091168152602001610267565b34801561049157600080fd5b5060015461046d906001600160a01b031681565b3480156104b157600080fd5b507f000000000000000000000000000000000000000000000000000000000000000061046d565b3480156104e457600080fd5b506102906104f3366004613cd0565b611829565b34801561050457600080fd5b50610290610513366004613c72565b611836565b61022f610526366004614070565b611985565b34801561053757600080fd5b506102566105463660046140d7565b611cbc565b34801561055757600080fd5b507f000000000000000000000000000000000000000000000000000000000000000061046d565b34801561058a57600080fd5b5061046d7f000000000000000000000000000000000000000000000000000000000000000081565b3480156105be57600080fd5b506102be6105cd366004613e0e565b611e84565b3480156105de57600080fd5b506102566105ed366004613fda565b611eb1565b3480156105fe57600080fd5b5061046d7f000000000000000000000000000000000000000000000000000000000000000081565b34801561063257600080fd5b50610646610641366004614149565b611fa4565b60408051938452602084019290925290820152606001610267565b34801561066d57600080fd5b5061022f61067c3660046141c5565b6120a2565b61064661068f366004613c72565b61213d565b6102be6106a2366004614070565b61239c565b3480156106b357600080fd5b5061022f6106c23660046141c5565b6126eb565b60008082428110156106f45760405162461bcd60e51b81526004016106eb906141e2565b60405180910390fd5b610723897f00000000000000000000000000000000000000000000000000000000000000008a8a8a308a611cbc565b9093509150610733898685612737565b604051632e1a7d4d60e01b8152600481018390527f00000000000000000000000000000000000000000000000000000000000000006001600160a01b031690632e1a7d4d90602401600060405180830381600087803b15801561079557600080fd5b505af11580156107a9573d6000803e3d6000fd5b505050506107b78583612852565b50965096945050505050565b60006107d28484846000612920565b949350505050565b606081428110156107fd5760405162461bcd60e51b81526004016106eb906141e2565b6001600160a01b037f0000000000000000000000000000000000000000000000000000000000000000168686610834600182614227565b8181106108435761084361423e565b905060200201602081019061085891906141c5565b6001600160a01b03161461087e5760405162461bcd60e51b81526004016106eb90614254565b6108dc7f000000000000000000000000000000000000000000000000000000000000000089888880806020026020016040519081016040528093929190818152602001838360200280828437600092019190915250612a0592505050565b91508682600184516108ee9190614227565b815181106108fe576108fe61423e565b602002602001015110156109245760405162461bcd60e51b81526004016106eb9061428b565b6109e98686600081811061093a5761093a61423e565b905060200201602081019061094f91906141c5565b336109c97f00000000000000000000000000000000000000000000000000000000000000008a8a60008181106109875761098761423e565b905060200201602081019061099c91906141c5565b8b8b60018181106109af576109af61423e565b90506020020160208101906109c491906141c5565b612bd5565b856000815181106109dc576109dc61423e565b6020026020010151612cae565b610a2882878780806020026020016040519081016040528093929190818152602001838360200280828437600092019190915250309250612dde915050565b7f00000000000000000000000000000000000000000000000000000000000000006001600160a01b0316632e1a7d4d8360018551610a669190614227565b81518110610a7657610a7661423e565b60200260200101516040518263ffffffff1660e01b8152600401610a9c91815260200190565b600060405180830381600087803b158015610ab657600080fd5b505af1158015610aca573d6000803e3d6000fd5b50505050610afe848360018551610ae19190614227565b81518110610af157610af161423e565b6020026020010151612852565b509695505050505050565b6060610b367f0000000000000000000000000000000000000000000000000000000000000000848461307f565b9392505050565b6000806000610b6d7f00000000000000000000000000000000000000000000000000000000000000008f8f612bd5565b9050600087610b7c578c610b80565b6000195b60405163d505accf60e01b81529091506001600160a01b0383169063d505accf90610bbb903390309086908f908e908e908e906004016142d3565b600060405180830381600087803b158015610bd557600080fd5b505af1158015610be9573d6000803e3d6000fd5b50505050610bfc8f8f8f8f8f8f8f611cbc565b809450819550505050509b509b9950505050505050505050565b60608142811015610c395760405162461bcd60e51b81526004016106eb906141e2565b610c977f000000000000000000000000000000000000000000000000000000000000000089888880806020026020016040519081016040528093929190818152602001838360200280828437600092019190915250612a0592505050565b9150868260018451610ca99190614227565b81518110610cb957610cb961423e565b60200260200101511015610cdf5760405162461bcd60e51b81526004016106eb9061428b565b610cf58686600081811061093a5761093a61423e565b610afe82878780806020026020016040519081016040528093929190818152602001838360200280828437600092019190915250899250612dde915050565b60608142811015610d575760405162461bcd60e51b81526004016106eb906141e2565b6001600160a01b037f0000000000000000000000000000000000000000000000000000000000000000168686610d8e600182614227565b818110610d9d57610d9d61423e565b9050602002016020810190610db291906141c5565b6001600160a01b031614610dd85760405162461bcd60e51b81526004016106eb90614254565b610e367f00000000000000000000000000000000000000000000000000000000000000008988888080602002602001604051908101604052809392919081815260200183836020028082843760009201919091525061307f92505050565b91508682600081518110610e4c57610e4c61423e565b602002602001015111156109245760405162461bcd60e51b81526004016106eb90614314565b6000610e8085858585612920565b95945050505050565b6000610e8085858585613238565b600080610ee57f00000000000000000000000000000000000000000000000000000000000000008d7f0000000000000000000000000000000000000000000000000000000000000000612bd5565b9050600086610ef4578b610ef8565b6000195b60405163d505accf60e01b81529091506001600160a01b0383169063d505accf90610f33903390309086908e908d908d908d906004016142d3565b600060405180830381600087803b158015610f4d57600080fd5b505af1158015610f61573d6000803e3d6000fd5b50505050610f738d8d8d8d8d8d611836565b9d9c50505050505050505050505050565b8042811015610fa55760405162461bcd60e51b81526004016106eb906141e2565b61103685856000818110610fbb57610fbb61423e565b9050602002016020810190610fd091906141c5565b336110307f0000000000000000000000000000000000000000000000000000000000000000898960008181106110085761100861423e565b905060200201602081019061101d91906141c5565b8a8a60018181106109af576109af61423e565b8a612cae565b60008585611045600182614227565b8181106110545761105461423e565b905060200201602081019061106991906141c5565b6040516370a0823160e01b81526001600160a01b03868116600483015291909116906370a0823190602401602060405180830381865afa1580156110b1573d6000803e3d6000fd5b505050506040513d601f19601f820116820180604052508101906110d59190614358565b9050611115868680806020026020016040519081016040528093929190818152602001838360200280828437600092019190915250889250613323915050565b86818787611124600182614227565b8181106111335761113361423e565b905060200201602081019061114891906141c5565b6040516370a0823160e01b81526001600160a01b03888116600483015291909116906370a08231906024015b602060405180830381865afa158015611191573d6000803e3d6000fd5b505050506040513d601f19601f820116820180604052508101906111b59190614358565b6111bf9190614227565b10156111dd5760405162461bcd60e51b81526004016106eb9061428b565b5050505050505050565b6000546001600160a01b031633146112115760405162461bcd60e51b81526004016106eb90614371565b61121b6000613700565b565b804281101561123e5760405162461bcd60e51b81526004016106eb906141e2565b6001600160a01b037f0000000000000000000000000000000000000000000000000000000000000000168585611275600182614227565b8181106112845761128461423e565b905060200201602081019061129991906141c5565b6001600160a01b0316146112bf5760405162461bcd60e51b81526004016106eb90614254565b6112d585856000818110610fbb57610fbb61423e565b611313858580806020026020016040519081016040528093929190818152602001838360200280828437600092019190915250309250613323915050565b6040516370a0823160e01b81523060048201526000907f00000000000000000000000000000000000000000000000000000000000000006001600160a01b0316906370a0823190602401602060405180830381865afa15801561137a573d6000803e3d6000fd5b505050506040513d601f19601f8201168201806040525081019061139e9190614358565b9050868110156113c05760405162461bcd60e51b81526004016106eb9061428b565b604051632e1a7d4d60e01b8152600481018290527f00000000000000000000000000000000000000000000000000000000000000006001600160a01b031690632e1a7d4d90602401600060405180830381600087803b15801561142257600080fd5b505af1158015611436573d6000803e3d6000fd5b505050506111dd8482612852565b606081428110156114675760405162461bcd60e51b81526004016106eb906141e2565b7f00000000000000000000000000000000000000000000000000000000000000006001600160a01b0316868660008181106114a4576114a461423e565b90506020020160208101906114b991906141c5565b6001600160a01b0316146114df5760405162461bcd60e51b81526004016106eb90614254565b61153d7f000000000000000000000000000000000000000000000000000000000000000034888880806020026020016040519081016040528093929190818152602001838360200280828437600092019190915250612a0592505050565b915086826001845161154f9190614227565b8151811061155f5761155f61423e565b602002602001015110156115855760405162461bcd60e51b81526004016106eb9061428b565b7f00000000000000000000000000000000000000000000000000000000000000006001600160a01b031663d0e30db0836000815181106115c7576115c761423e565b60200260200101516040518263ffffffff1660e01b81526004016000604051808303818588803b1580156115fa57600080fd5b505af115801561160e573d6000803e3d6000fd5b50505050507f00000000000000000000000000000000000000000000000000000000000000006001600160a01b031663a9059cbb6116797f0000000000000000000000000000000000000000000000000000000000000000898960008181106110085761100861423e565b8460008151811061168c5761168c61423e565b60200260200101516040518363ffffffff1660e01b81526004016116c59291906001600160a01b03929092168252602082015260400190565b6020604051808303816000875af11580156116e4573d6000803e3d6000fd5b505050506040513d601f19601f8201168201806040525081019061170891906143a6565b61171457611714613c37565b61175382878780806020026020016040519081016040528093929190818152602001838360200280828437600092019190915250899250612dde915050565b5095945050505050565b60006107d28484846000613238565b6060814281101561178f5760405162461bcd60e51b81526004016106eb906141e2565b6117ed7f00000000000000000000000000000000000000000000000000000000000000008988888080602002602001604051908101604052809392919081815260200183836020028082843760009201919091525061307f92505050565b915086826000815181106118035761180361423e565b60200260200101511115610cdf5760405162461bcd60e51b81526004016106eb90614314565b60006107d2848484613750565b600081428110156118595760405162461bcd60e51b81526004016106eb906141e2565b611888887f00000000000000000000000000000000000000000000000000000000000000008989893089611cbc565b6040516370a0823160e01b81523060048201529093506119019150899086906001600160a01b038316906370a0823190602401602060405180830381865afa1580156118d8573d6000803e3d6000fd5b505050506040513d601f19601f820116820180604052508101906118fc9190614358565b612737565b604051632e1a7d4d60e01b8152600481018390527f00000000000000000000000000000000000000000000000000000000000000006001600160a01b031690632e1a7d4d90602401600060405180830381600087803b15801561196357600080fd5b505af1158015611977573d6000803e3d6000fd5b50505050610afe8483612852565b80428110156119a65760405162461bcd60e51b81526004016106eb906141e2565b7f00000000000000000000000000000000000000000000000000000000000000006001600160a01b0316858560008181106119e3576119e361423e565b90506020020160208101906119f891906141c5565b6001600160a01b031614611a1e5760405162461bcd60e51b81526004016106eb90614254565b60003490507f00000000000000000000000000000000000000000000000000000000000000006001600160a01b031663d0e30db0826040518263ffffffff1660e01b81526004016000604051808303818588803b158015611a7e57600080fd5b505af1158015611a92573d6000803e3d6000fd5b50505050507f00000000000000000000000000000000000000000000000000000000000000006001600160a01b031663a9059cbb611afd7f0000000000000000000000000000000000000000000000000000000000000000898960008181106110085761100861423e565b6040516001600160e01b031960e084901b1681526001600160a01b039091166004820152602481018490526044016020604051808303816000875af1158015611b4a573d6000803e3d6000fd5b505050506040513d601f19601f82011682018060405250810190611b6e91906143a6565b611b7a57611b7a613c37565b60008686611b89600182614227565b818110611b9857611b9861423e565b9050602002016020810190611bad91906141c5565b6040516370a0823160e01b81526001600160a01b03878116600483015291909116906370a0823190602401602060405180830381865afa158015611bf5573d6000803e3d6000fd5b505050506040513d601f19601f82011682018060405250810190611c199190614358565b9050611c59878780806020026020016040519081016040528093929190818152602001838360200280828437600092019190915250899250613323915050565b87818888611c68600182614227565b818110611c7757611c7761423e565b9050602002016020810190611c8c91906141c5565b6040516370a0823160e01b81526001600160a01b03898116600483015291909116906370a0823190602401611174565b6000808242811015611ce05760405162461bcd60e51b81526004016106eb906141e2565b6000611d0d7f00000000000000000000000000000000000000000000000000000000000000008c8c612bd5565b6040516323b872dd60e01b81523360048201526001600160a01b03821660248201819052604482018c90529192506323b872dd906064016020604051808303816000875af1158015611d63573d6000803e3d6000fd5b505050506040513d601f19601f82011682018060405250810190611d8791906143a6565b5060405163226bf2d160e21b81526001600160a01b03878116600483015260009182918416906389afcb449060240160408051808303816000875af1158015611dd4573d6000803e3d6000fd5b505050506040513d601f19601f82011682018060405250810190611df891906143c3565b915091506000611e088e8e6137e2565b509050806001600160a01b03168e6001600160a01b031614611e2b578183611e2e565b82825b90975095508a871015611e535760405162461bcd60e51b81526004016106eb906143e7565b89861015611e735760405162461bcd60e51b81526004016106eb9061442a565b505050505097509795505050505050565b6060610b367f00000000000000000000000000000000000000000000000000000000000000008484612a05565b6000806000611f017f00000000000000000000000000000000000000000000000000000000000000008e7f0000000000000000000000000000000000000000000000000000000000000000612bd5565b9050600087611f10578c611f14565b6000195b60405163d505accf60e01b81529091506001600160a01b0383169063d505accf90611f4f903390309086908f908e908e908e906004016142d3565b600060405180830381600087803b158015611f6957600080fd5b505af1158015611f7d573d6000803e3d6000fd5b50505050611f8f8e8e8e8e8e8e6106c7565b909f909e509c50505050505050505050505050565b60008060008342811015611fca5760405162461bcd60e51b81526004016106eb906141e2565b611fd88c8c8c8c8c8c6138cc565b9094509250600061200a7f00000000000000000000000000000000000000000000000000000000000000008e8e612bd5565b90506120188d338388612cae565b6120248c338387612cae565b6040516335313c2160e11b81526001600160a01b038881166004830152821690636a627842906024016020604051808303816000875af115801561206c573d6000803e3d6000fd5b505050506040513d601f19601f820116820180604052508101906120909190614358565b92505050985098509895505050505050565b6000546001600160a01b031633146120cc5760405162461bcd60e51b81526004016106eb90614371565b6001600160a01b0381166121315760405162461bcd60e51b815260206004820152602660248201527f4f776e61626c653a206e6577206f776e657220697320746865207a65726f206160448201526564647265737360d01b60648201526084016106eb565b61213a81613700565b50565b600080600083428110156121635760405162461bcd60e51b81526004016106eb906141e2565b6121918a7f00000000000000000000000000000000000000000000000000000000000000008b348c8c6138cc565b909450925060006121e37f00000000000000000000000000000000000000000000000000000000000000008c7f0000000000000000000000000000000000000000000000000000000000000000612bd5565b90506121f18b338388612cae565b7f00000000000000000000000000000000000000000000000000000000000000006001600160a01b031663d0e30db0856040518263ffffffff1660e01b81526004016000604051808303818588803b15801561224c57600080fd5b505af1158015612260573d6000803e3d6000fd5b505060405163a9059cbb60e01b81526001600160a01b038581166004830152602482018990527f000000000000000000000000000000000000000000000000000000000000000016935063a9059cbb925060440190506020604051808303816000875af11580156122d5573d6000803e3d6000fd5b505050506040513d601f19601f820116820180604052508101906122f991906143a6565b61230557612305613c37565b6040516335313c2160e11b81526001600160a01b038881166004830152821690636a627842906024016020604051808303816000875af115801561234d573d6000803e3d6000fd5b505050506040513d601f19601f820116820180604052508101906123719190614358565b92508334111561238e5761238e336123898634614227565b612852565b505096509650969350505050565b606081428110156123bf5760405162461bcd60e51b81526004016106eb906141e2565b7f00000000000000000000000000000000000000000000000000000000000000006001600160a01b0316868660008181106123fc576123fc61423e565b905060200201602081019061241191906141c5565b6001600160a01b0316146124375760405162461bcd60e51b81526004016106eb90614254565b6124957f00000000000000000000000000000000000000000000000000000000000000008888888080602002602001604051908101604052809392919081815260200183836020028082843760009201919091525061307f92505050565b915034826000815181106124ab576124ab61423e565b602002602001015111156124d15760405162461bcd60e51b81526004016106eb90614314565b7f00000000000000000000000000000000000000000000000000000000000000006001600160a01b031663d0e30db0836000815181106125135761251361423e565b60200260200101516040518263ffffffff1660e01b81526004016000604051808303818588803b15801561254657600080fd5b505af115801561255a573d6000803e3d6000fd5b50505050507f00000000000000000000000000000000000000000000000000000000000000006001600160a01b031663a9059cbb6125c57f0000000000000000000000000000000000000000000000000000000000000000898960008181106110085761100861423e565b846000815181106125d8576125d861423e565b60200260200101516040518363ffffffff1660e01b81526004016126119291906001600160a01b03929092168252602082015260400190565b6020604051808303816000875af1158015612630573d6000803e3d6000fd5b505050506040513d601f19601f8201168201806040525081019061265491906143a6565b61266057612660613c37565b61269f82878780806020026020016040519081016040528093929190818152602001838360200280828437600092019190915250899250612dde915050565b816000815181106126b2576126b261423e565b60200260200101513411156117535761175333836000815181106126d8576126d861423e565b6020026020010151346123899190614227565b6000546001600160a01b031633146127155760405162461bcd60e51b81526004016106eb90614371565b600180546001600160a01b0319166001600160a01b0392909216919091179055565b604080516001600160a01b038481166024830152604480830185905283518084039091018152606490920183526020820180516001600160e01b031663a9059cbb60e01b17905291516000928392908716916127939190614499565b6000604051808303816000865af19150503d80600081146127d0576040519150601f19603f3d011682016040523d82523d6000602084013e6127d5565b606091505b50915091508180156127ff5750805115806127ff5750808060200190518101906127ff91906143a6565b61284b5760405162461bcd60e51b815260206004820152601f60248201527f5472616e7366657248656c7065723a205452414e534645525f4641494c45440060448201526064016106eb565b5050505050565b604080516000808252602082019092526001600160a01b03841690839060405161287c9190614499565b60006040518083038185875af1925050503d80600081146128b9576040519150601f19603f3d011682016040523d82523d6000602084013e6128be565b606091505b505090508061291b5760405162461bcd60e51b815260206004820152602360248201527f5472616e7366657248656c7065723a204554485f5452414e534645525f46414960448201526213115160ea1b60648201526084016106eb565b505050565b60008085116129805760405162461bcd60e51b815260206004820152602660248201527f417572614c6962726172793a20494e53554646494349454e545f494e5055545f604482015265105353d5539560d21b60648201526084016106eb565b6000841180156129905750600083115b6129ac5760405162461bcd60e51b81526004016106eb906144b5565b60006129ba836103e8614227565b6129c490876144f8565b905060006129d285836144f8565b90506000826129e3886103e86144f8565b6129ed9190614517565b90506129f9818361452f565b98975050505050505050565b6060600282511015612a555760405162461bcd60e51b8152602060048201526019602482015278082eae4c298d2c4e4c2e4f27440929cac82989288bea082a89603b1b60448201526064016106eb565b815167ffffffffffffffff811115612a6f57612a6f613df8565b604051908082528060200260200182016040528015612a98578160200160208202803683370190505b5090508281600081518110612aaf57612aaf61423e565b60200260200101818152505060005b60018351612acc9190614227565b811015612bcd57600080612b1f87868581518110612aec57612aec61423e565b602002602001015187866001612b029190614517565b81518110612b1257612b1261423e565b6020026020010151613af1565b91509150612b90848481518110612b3857612b3861423e565b60200260200101518383612b8b8b8a8981518110612b5857612b5861423e565b60200260200101518b8a6001612b6e9190614517565b81518110612b7e57612b7e61423e565b6020026020010151613bbb565b612920565b84612b9c856001614517565b81518110612bac57612bac61423e565b60200260200101818152505050508080612bc590614551565b915050612abe565b509392505050565b6000806000612be485856137e2565b6040516bffffffffffffffffffffffff19606084811b8216602084015283901b1660348201529193509150869060480160405160208183030381529060405280519060200120604051602001612c8c9291906001600160f81b0319815260609290921b6bffffffffffffffffffffffff1916600183015260158201527fd9b35256579ff1901f04559c5e15fd3b5c397d5f5a7900722d7512602a987fa8603582015260550190565b60408051601f1981840301815291905280516020909101209695505050505050565b604080516001600160a01b0385811660248301528481166044830152606480830185905283518084039091018152608490920183526020820180516001600160e01b03166323b872dd60e01b1790529151600092839290881691612d129190614499565b6000604051808303816000865af19150503d8060008114612d4f576040519150601f19603f3d011682016040523d82523d6000602084013e612d54565b606091505b5091509150818015612d7e575080511580612d7e575080806020019051810190612d7e91906143a6565b612dd65760405162461bcd60e51b8152602060048201526024808201527f5472616e7366657248656c7065723a205452414e534645525f46524f4d5f46416044820152631253115160e21b60648201526084016106eb565b505050505050565b60005b60018351612def9190614227565b81101561307957600080848381518110612e0b57612e0b61423e565b602002602001015185846001612e219190614517565b81518110612e3157612e3161423e565b6020026020010151915091506000612e4983836137e2565b509050600087612e5a866001614517565b81518110612e6a57612e6a61423e565b60200260200101519050600080836001600160a01b0316866001600160a01b031614612e9857826000612e9c565b6000835b60015491935091506001600160a01b031615612f395760015460405163152cf14360e31b81523360048201526001600160a01b0388811660248301528781166044830152606482018690529091169063a9678a18906084016020604051808303816000875af1158015612f13573d6000803e3d6000fd5b505050506040513d601f19601f82011682018060405250810190612f3791906143a6565b505b600060028a51612f499190614227565b8810612f555788612fa3565b612fa37f0000000000000000000000000000000000000000000000000000000000000000878c612f868c6002614517565b81518110612f9657612f9661423e565b6020026020010151612bd5565b9050612fd07f00000000000000000000000000000000000000000000000000000000000000008888612bd5565b6001600160a01b031663022c0d9f84848460006040519080825280601f01601f19166020018201604052801561300d576020820181803683370190505b506040518563ffffffff1660e01b815260040161302d949392919061456c565b600060405180830381600087803b15801561304757600080fd5b505af115801561305b573d6000803e3d6000fd5b5050505050505050505050808061307190614551565b915050612de1565b50505050565b60606002825110156130cf5760405162461bcd60e51b8152602060048201526019602482015278082eae4c298d2c4e4c2e4f27440929cac82989288bea082a89603b1b60448201526064016106eb565b815167ffffffffffffffff8111156130e9576130e9613df8565b604051908082528060200260200182016040528015613112578160200160208202803683370190505b5090508281600183516131259190614227565b815181106131355761313561423e565b6020026020010181815250506000600183516131519190614227565b90505b8015612bcd57600080613197878661316d600187614227565b8151811061317d5761317d61423e565b6020026020010151878681518110612b1257612b1261423e565b915091506131fb8484815181106131b0576131b061423e565b602002602001015183836131f68b8a60018a6131cc9190614227565b815181106131dc576131dc61423e565b60200260200101518b8a81518110612b7e57612b7e61423e565b613238565b84613207600186614227565b815181106132175761321761423e565b60200260200101818152505050508080613230906145bc565b915050613154565b60008085116132995760405162461bcd60e51b815260206004820152602760248201527f417572614c6962726172793a20494e53554646494349454e545f4f555450555460448201526617d05353d5539560ca1b60648201526084016106eb565b6000841180156132a95750600083115b6132c55760405162461bcd60e51b81526004016106eb906144b5565b60006132d186866144f8565b6132dd906103e86144f8565b905060006132ed846103e8614227565b6132f78887614227565b61330191906144f8565b905061330d818361452f565b613318906001614517565b979650505050505050565b60005b600183516133349190614227565b81101561291b576000808483815181106133505761335061423e565b6020026020010151858460016133669190614517565b815181106133765761337661423e565b602002602001015191509150600061338e83836137e2565b50905060006133be7f00000000000000000000000000000000000000000000000000000000000000008585612bd5565b9050600080600080846001600160a01b0316630902f1ac6040518163ffffffff1660e01b8152600401606060405180830381865afa158015613404573d6000803e3d6000fd5b505050506040513d601f19601f8201168201806040525081019061342891906145fe565b506001600160701b031691506001600160701b03169150600080876001600160a01b03168a6001600160a01b031614613462578284613465565b83835b6040516370a0823160e01b81526001600160a01b038a8116600483015292945090925083918c16906370a0823190602401602060405180830381865afa1580156134b3573d6000803e3d6000fd5b505050506040513d601f19601f820116820180604052508101906134d79190614358565b6134e19190614227565b95506135568683838a6001600160a01b03166354cf2aeb6040518163ffffffff1660e01b8152600401602060405180830381865afa158015613527573d6000803e3d6000fd5b505050506040513d601f19601f8201168201806040525081019061354b9190614641565b63ffffffff16612920565b6001549095506001600160a01b03161593506135f7925050505760015460405163152cf14360e31b81523360048201526001600160a01b0388811660248301528781166044830152606482018490529091169063a9678a18906084016020604051808303816000875af11580156135d1573d6000803e3d6000fd5b505050506040513d601f19601f820116820180604052508101906135f591906143a6565b505b600080856001600160a01b0316886001600160a01b03161461361b5782600061361f565b6000835b91509150600060028c516136339190614227565b8a1061363f578a613670565b6136707f0000000000000000000000000000000000000000000000000000000000000000898e612f868e6002614517565b6040805160008152602081019182905263022c0d9f60e01b9091529091506001600160a01b0387169063022c0d9f906136b2908690869086906024810161456c565b600060405180830381600087803b1580156136cc57600080fd5b505af11580156136e0573d6000803e3d6000fd5b5050505050505050505050505080806136f890614551565b915050613326565b600080546001600160a01b038381166001600160a01b0319831681178455604051919092169283917f8be0079c531659141344cd1fd0a4f28419497f9722a3daafe3b4186f6b6457e09190a35050565b60008084116137a15760405162461bcd60e51b815260206004820181905260248201527f417572614c6962726172793a20494e53554646494349454e545f414d4f554e5460448201526064016106eb565b6000831180156137b15750600082115b6137cd5760405162461bcd60e51b81526004016106eb906144b5565b826137d883866144f8565b6107d2919061452f565b600080826001600160a01b0316846001600160a01b031614156138475760405162461bcd60e51b815260206004820181905260248201527f417572614c6962726172793a204944454e544943414c5f41444452455353455360448201526064016106eb565b826001600160a01b0316846001600160a01b03161061386757828461386a565b83835b90925090506001600160a01b0382166138c55760405162461bcd60e51b815260206004820152601960248201527f417572614c6962726172793a205a45524f5f414444524553530000000000000060448201526064016106eb565b9250929050565b60405163e6a4390560e01b81526001600160a01b0387811660048301528681166024830152600091829182917f00000000000000000000000000000000000000000000000000000000000000009091169063e6a4390590604401602060405180830381865afa158015613943573d6000803e3d6000fd5b505050506040513d601f19601f82011682018060405250810190613967919061465c565b6001600160a01b03161415613a0c576040516364e329cb60e11b81526001600160a01b03898116600483015288811660248301527f0000000000000000000000000000000000000000000000000000000000000000169063c9c65396906044016020604051808303816000875af11580156139e6573d6000803e3d6000fd5b505050506040513d601f19601f82011682018060405250810190613a0a919061465c565b505b600080613a3a7f00000000000000000000000000000000000000000000000000000000000000008b8b613af1565b91509150816000148015613a4c575080155b15613a5c57879350869250613ae4565b6000613a69898484613750565b9050878111613a9d5785811015613a925760405162461bcd60e51b81526004016106eb9061442a565b889450925082613ae2565b6000613aaa898486613750565b905089811115613abc57613abc613c37565b87811015613adc5760405162461bcd60e51b81526004016106eb906143e7565b94508793505b505b5050965096945050505050565b6000806000613b0085856137e2565b509050600080613b11888888612bd5565b6001600160a01b0316630902f1ac6040518163ffffffff1660e01b8152600401606060405180830381865afa158015613b4e573d6000803e3d6000fd5b505050506040513d601f19601f82011682018060405250810190613b7291906145fe565b506001600160701b031691506001600160701b03169150826001600160a01b0316876001600160a01b031614613ba9578082613bac565b81815b90999098509650505050505050565b6000613bc8848484612bd5565b6001600160a01b03166354cf2aeb6040518163ffffffff1660e01b8152600401602060405180830381865afa158015613c05573d6000803e3d6000fd5b505050506040513d601f19601f82011682018060405250810190613c299190614641565b63ffffffff16949350505050565b634e487b7160e01b600052600160045260246000fd5b6001600160a01b038116811461213a57600080fd5b8035613c6d81613c4d565b919050565b60008060008060008060c08789031215613c8b57600080fd5b8635613c9681613c4d565b95506020870135945060408701359350606087013592506080870135613cbb81613c4d565b8092505060a087013590509295509295509295565b600080600060608486031215613ce557600080fd5b505081359360208301359350604090920135919050565b60008083601f840112613d0e57600080fd5b50813567ffffffffffffffff811115613d2657600080fd5b6020830191508360208260051b85010111156138c557600080fd5b60008060008060008060a08789031215613d5a57600080fd5b8635955060208701359450604087013567ffffffffffffffff811115613d7f57600080fd5b613d8b89828a01613cfc565b9095509350506060870135613d9f81613c4d565b80925050608087013590509295509295509295565b6020808252825182820181905260009190848201906040850190845b81811015613dec57835183529284019291840191600101613dd0565b50909695505050505050565b634e487b7160e01b600052604160045260246000fd5b60008060408385031215613e2157600080fd5b8235915060208084013567ffffffffffffffff80821115613e4157600080fd5b818601915086601f830112613e5557600080fd5b813581811115613e6757613e67613df8565b8060051b604051601f19603f83011681018181108582111715613e8c57613e8c613df8565b604052918252848201925083810185019189831115613eaa57600080fd5b938501935b82851015613ecf57613ec085613c62565b84529385019392850192613eaf565b8096505050505050509250929050565b801515811461213a57600080fd5b803560ff81168114613c6d57600080fd5b60008060008060008060008060008060006101608c8e031215613f2057600080fd5b8b35613f2b81613c4d565b9a5060208c0135613f3b81613c4d565b995060408c0135985060608c0135975060808c0135965060a08c0135613f6081613c4d565b955060c08c0135945060e08c0135613f7781613edf565b9350613f866101008d01613eed565b92506101208c013591506101408c013590509295989b509295989b9093969950565b60008060008060808587031215613fbe57600080fd5b5050823594602084013594506040840135936060013592509050565b6000806000806000806000806000806101408b8d031215613ffa57600080fd5b8a3561400581613c4d565b995060208b0135985060408b0135975060608b0135965060808b013561402a81613c4d565b955060a08b0135945060c08b013561404181613edf565b935061404f60e08c01613eed565b92506101008b013591506101208b013590509295989b9194979a5092959850565b60008060008060006080868803121561408857600080fd5b85359450602086013567ffffffffffffffff8111156140a657600080fd5b6140b288828901613cfc565b90955093505060408601356140c681613c4d565b949793965091946060013592915050565b600080600080600080600060e0888a0312156140f257600080fd5b87356140fd81613c4d565b9650602088013561410d81613c4d565b955060408801359450606088013593506080880135925060a088013561413281613c4d565b8092505060c0880135905092959891949750929550565b600080600080600080600080610100898b03121561416657600080fd5b883561417181613c4d565b9750602089013561418181613c4d565b965060408901359550606089013594506080890135935060a0890135925060c08901356141ad81613c4d565b8092505060e089013590509295985092959890939650565b6000602082840312156141d757600080fd5b8135610b3681613c4d565b602080825260159082015274105d5c98549bdd5d195c958c4e8811561412549151605a1b604082015260600190565b634e487b7160e01b600052601160045260246000fd5b60008282101561423957614239614211565b500390565b634e487b7160e01b600052603260045260246000fd5b6020808252601a908201527f41757261526f7574657256313a20494e56414c49445f50415448000000000000604082015260600190565b60208082526028908201527f41757261526f7574657256313a20494e53554646494349454e545f4f555450556040820152671517d05353d5539560c21b606082015260800190565b6001600160a01b0397881681529590961660208601526040850193909352606084019190915260ff16608083015260a082015260c081019190915260e00190565b60208082526024908201527f41757261526f7574657256313a204558434553534956455f494e5055545f414d60408201526313d5539560e21b606082015260800190565b60006020828403121561436a57600080fd5b5051919050565b6020808252818101527f4f776e61626c653a2063616c6c6572206973206e6f7420746865206f776e6572604082015260600190565b6000602082840312156143b857600080fd5b8151610b3681613edf565b600080604083850312156143d657600080fd5b505080516020909101519092909150565b60208082526023908201527f41757261526f7574657256313a20494e53554646494349454e545f415f414d4f60408201526215539560ea1b606082015260800190565b60208082526023908201527f41757261526f7574657256313a20494e53554646494349454e545f425f414d4f60408201526215539560ea1b606082015260800190565b60005b83811015614488578181015183820152602001614470565b838111156130795750506000910152565b600082516144ab81846020870161446d565b9190910192915050565b60208082526023908201527f417572614c6962726172793a20494e53554646494349454e545f4c495155494460408201526249545960e81b606082015260800190565b600081600019048311821515161561451257614512614211565b500290565b6000821982111561452a5761452a614211565b500190565b60008261454c57634e487b7160e01b600052601260045260246000fd5b500490565b600060001982141561456557614565614211565b5060010190565b84815283602082015260018060a01b038316604082015260806060820152600082518060808401526145a58160a085016020870161446d565b601f01601f19169190910160a00195945050505050565b6000816145cb576145cb614211565b506000190190565b80516001600160701b0381168114613c6d57600080fd5b805163ffffffff81168114613c6d57600080fd5b60008060006060848603121561461357600080fd5b61461c846145d3565b925061462a602085016145d3565b9150614638604085016145ea565b90509250925092565b60006020828403121561465357600080fd5b610b36826145ea565b60006020828403121561466e57600080fd5b8151610b3681613c4d56fea26469706673582212202764052cf46dc07a2f6b5c88ccffa8df14aa66cc310dc94ad04c7dfef09bf13964736f6c634300080a0033",
  "immutableReferences": {
    "7638": [
      {
        "length": 32,
        "start": 1370
      },
      {
        "length": 32,
        "start": 1424
      },
      {
        "length": 32,
        "start": 2179
      },
      {
        "length": 32,
        "start": 2389
      },
      {
        "length": 32,
        "start": 2832
      },
      {
        "length": 32,
        "start": 2887
      },
      {
        "length": 32,
        "start": 3134
      },
      {
        "length": 32,
        "start": 3549
      },
      {
        "length": 32,
        "start": 3743
      },
      {
        "length": 32,
        "start": 4054
      },
      {
        "length": 32,
        "start": 5348
      },
      {
        "length": 32,
        "start": 5703
      },
      {
        "length": 32,
        "start": 6036
      },
      {
        "length": 32,
        "start": 6859
      },
      {
        "length": 32,
        "start": 7399
      },
      {
        "length": 32,
        "start": 7819
      },
      {
        "length": 32,
        "start": 7867
      },
      {
        "length": 32,
        "start": 8164
      },
      {
        "length": 32,
        "start": 8605
      },
      {
        "length": 32,
        "start": 9276
      },
      {
        "length": 32,
        "start": 9619
      },
      {
        "length": 32,
        "start": 12122
      },
      {
        "length": 32,
        "start": 12202
      },
      {
        "length": 32,
        "start": 13208
      },
      {
        "length": 32,
        "start": 13892
      },
      {
        "length": 32,
        "start": 14586
      },
      {
        "length": 32,
        "start": 14749
      },
      {
        "length": 32,
        "start": 14868
      }
    ],
    "7640": [
      {
        "length": 32,
        "start": 514
      },
      {
        "length": 32,
        "start": 1204
      },
      {
        "length": 32,
        "start": 1540
      },
      {
        "length": 32,
        "start": 1786
      },
      {
        "length": 32,
        "start": 1865
      },
      {
        "length": 32,
        "start": 2055
      },
      {
        "length": 32,
        "start": 2602
      },
      {
        "length": 32,
        "start": 3425
      },
      {
        "length": 32,
        "start": 3777
      },
      {
        "length": 32,
        "start": 4680
      },
      {
        "length": 32,
        "start": 4907
      },
      {
        "length": 32,
        "start": 5078
      },
      {
        "length": 32,
        "start": 5225
      },
      {
        "length": 32,
        "start": 5511
      },
      {
        "length": 32,
        "start": 5653
      },
      {
        "length": 32,
        "start": 6239
      },
      {
        "length": 32,
        "start": 6423
      },
      {
        "length": 32,
        "start": 6568
      },
      {
        "length": 32,
        "start": 6693
      },
      {
        "length": 32,
        "start": 6809
      },
      {
        "length": 32,
        "start": 7901
      },
      {
        "length": 32,
        "start": 8553
      },
      {
        "length": 32,
        "start": 8639
      },
      {
        "length": 32,
        "start": 8691
      },
      {
        "length": 32,
        "start": 8840
      },
      {
        "length": 32,
        "start": 9153
      },
      {
        "length": 32,
        "start": 9427
      },
      {
        "length": 32,
        "start": 9569
      }
    ]
  },
  "source": "// SPDX-License-Identifier: MIT\npragma solidity >=0.8.0;\n\nimport './AuraPair.sol';\nimport '../libraries/AuraLibrary.sol';\nimport '../interfaces/IAuraV2Router02.sol';\nimport '../interfaces/IAuraSwapFeeReward.sol';\nimport '@uniswap/lib/contracts/libraries/TransferHelper.sol';\nimport '@openzeppelin/contracts/access/Ownable.sol';\nimport '@uniswap/v2-periphery/contracts/interfaces/IWETH.sol';\nimport \"@uniswap/v2-core/contracts/interfaces/IUniswapV2Factory.sol\";\n\ncontract AuraRouterV1 is IAuraV2Router02, Ownable {\n\n    address public immutable _factory;\n    address public immutable _WETH;\n    address public swapFeeReward;\n\n    modifier ensure(uint deadline) {\n        require(deadline >= block.timestamp, 'AuraRouterV1: EXPIRED');\n        _;\n    }\n\n    constructor(address factory_, address WETH_) Ownable() {\n        _factory = factory_;\n        _WETH = WETH_;\n    }\n\n    receive() external payable {\n        assert(msg.sender == _WETH); // only accept ETH via fallback from the WETH contract\n    }\n\n    function factory() external view override returns (address) {\n        return _factory;\n    }\n\n    function WETH() external view returns (address) {\n        return _WETH;\n    }\n\n    function setSwapFeeReward(address _swapFeeReward) public onlyOwner {\n        swapFeeReward = _swapFeeReward;\n    }\n\n    // **** ADD LIQUIDITY ****\n    function _addLiquidity(\n        address tokenA,\n        address tokenB,\n        uint amountADesired,\n        uint amountBDesired,\n        uint amountAMin,\n        uint amountBMin\n    ) internal virtual returns (uint amountA, uint amountB) {\n        // create the pair if it doesn't exist yet\n        if (IUniswapV2Factory(_factory).getPair(tokenA, tokenB) == address(0)) {\n            IUniswapV2Factory(_factory).createPair(tokenA, tokenB);\n        }\n        (uint reserveA, uint reserveB) = AuraLibrary.getReserves(_factory, tokenA, tokenB);\n        if (reserveA == 0 && reserveB == 0) {\n            (amountA, amountB) = (amountADesired, amountBDesired);\n        } else {\n            uint amountBOptimal = AuraLibrary.quote(amountADesired, reserveA, reserveB);\n            if (amountBOptimal <= amountBDesired) {\n                require(amountBOptimal >= amountBMin, 'AuraRouterV1: INSUFFICIENT_B_AMOUNT');\n                (amountA, amountB) = (amountADesired, amountBOptimal);\n            } else {\n                uint amountAOptimal = AuraLibrary.quote(amountBDesired, reserveB, reserveA);\n                assert(amountAOptimal <= amountADesired);\n                require(amountAOptimal >= amountAMin, 'AuraRouterV1: INSUFFICIENT_A_AMOUNT');\n                (amountA, amountB) = (amountAOptimal, amountBDesired);\n            }\n        }\n    }\n\n    function addLiquidity(\n        address tokenA,\n        address tokenB,\n        uint amountADesired,\n        uint amountBDesired,\n        uint amountAMin,\n        uint amountBMin,\n        address to,\n        uint deadline\n    ) external virtual override ensure(deadline) returns (uint amountA, uint amountB, uint liquidity) {\n        (amountA, amountB) = _addLiquidity(tokenA, tokenB, amountADesired, amountBDesired, amountAMin, amountBMin);\n        address pair = AuraLibrary.pairFor(_factory, tokenA, tokenB);\n        TransferHelper.safeTransferFrom(tokenA, msg.sender, pair, amountA);\n        TransferHelper.safeTransferFrom(tokenB, msg.sender, pair, amountB);\n        liquidity = AuraPair(pair).mint(to);\n    }\n    function addLiquidityETH(\n        address token,\n        uint amountTokenDesired,\n        uint amountTokenMin,\n        uint amountETHMin,\n        address to,\n        uint deadline\n    ) external virtual override payable ensure(deadline) returns (uint amountToken, uint amountETH, uint liquidity) {\n        (amountToken, amountETH) = _addLiquidity(\n            token,\n            _WETH,\n            amountTokenDesired,\n            msg.value,\n            amountTokenMin,\n            amountETHMin\n        );\n        address pair = AuraLibrary.pairFor(_factory, token, _WETH);\n        TransferHelper.safeTransferFrom(token, msg.sender, pair, amountToken);\n        IWETH(_WETH).deposit{value: amountETH}();\n        assert(IWETH(_WETH).transfer(pair, amountETH));\n        liquidity = AuraPair(pair).mint(to);\n        // refund dust eth, if any\n        if (msg.value > amountETH) TransferHelper.safeTransferETH(msg.sender, msg.value - amountETH);\n    }\n\n    // **** REMOVE LIQUIDITY ****\n    function removeLiquidity(\n        address tokenA,\n        address tokenB,\n        uint liquidity,\n        uint amountAMin,\n        uint amountBMin,\n        address to,\n        uint deadline\n    ) public virtual override ensure(deadline) returns (uint amountA, uint amountB) {\n        address pair = AuraLibrary.pairFor(_factory, tokenA, tokenB);\n        AuraPair(pair).transferFrom(msg.sender, pair, liquidity); // send liquidity to pair\n        (uint amount0, uint amount1) = AuraPair(pair).burn(to);\n        (address token0,) = AuraLibrary.sortTokens(tokenA, tokenB);\n        (amountA, amountB) = tokenA == token0 ? (amount0, amount1) : (amount1, amount0);\n        require(amountA >= amountAMin, 'AuraRouterV1: INSUFFICIENT_A_AMOUNT');\n        require(amountB >= amountBMin, 'AuraRouterV1: INSUFFICIENT_B_AMOUNT');\n    }\n    function removeLiquidityETH(\n        address token,\n        uint liquidity,\n        uint amountTokenMin,\n        uint amountETHMin,\n        address to,\n        uint deadline\n    ) public virtual override ensure(deadline) returns (uint amountToken, uint amountETH) {\n        (amountToken, amountETH) = removeLiquidity(\n            token,\n            _WETH,\n            liquidity,\n            amountTokenMin,\n            amountETHMin,\n            address(this),\n            deadline\n        );\n        TransferHelper.safeTransfer(token, to, amountToken);\n        IWETH(_WETH).withdraw(amountETH);\n        TransferHelper.safeTransferETH(to, amountETH);\n    }\n    function removeLiquidityWithPermit(\n        address tokenA,\n        address tokenB,\n        uint liquidity,\n        uint amountAMin,\n        uint amountBMin,\n        address to,\n        uint deadline,\n        bool approveMax, uint8 v, bytes32 r, bytes32 s\n    ) external virtual override returns (uint amountA, uint amountB) {\n        address pair = AuraLibrary.pairFor(_factory, tokenA, tokenB);\n        uint value = approveMax ? type(uint).max : liquidity;\n        AuraPair(pair).permit(msg.sender, address(this), value, deadline, v, r, s);\n        (amountA, amountB) = removeLiquidity(tokenA, tokenB, liquidity, amountAMin, amountBMin, to, deadline);\n    }\n    function removeLiquidityETHWithPermit(\n        address token,\n        uint liquidity,\n        uint amountTokenMin,\n        uint amountETHMin,\n        address to,\n        uint deadline,\n        bool approveMax, uint8 v, bytes32 r, bytes32 s\n    ) external virtual override returns (uint amountToken, uint amountETH) {\n        address pair = AuraLibrary.pairFor(_factory, token, _WETH);\n        uint value = approveMax ? type(uint).max : liquidity;\n        AuraPair(pair).permit(msg.sender, address(this), value, deadline, v, r, s);\n        (amountToken, amountETH) = removeLiquidityETH(token, liquidity, amountTokenMin, amountETHMin, to, deadline);\n    }\n\n    // **** REMOVE LIQUIDITY (supporting fee-on-transfer tokens) ****\n    function removeLiquidityETHSupportingFeeOnTransferTokens(\n        address token,\n        uint liquidity,\n        uint amountTokenMin,\n        uint amountETHMin,\n        address to,\n        uint deadline\n    ) public virtual override ensure(deadline) returns (uint amountETH) {\n        (, amountETH) = removeLiquidity(\n            token,\n            _WETH,\n            liquidity,\n            amountTokenMin,\n            amountETHMin,\n            address(this),\n            deadline\n        );\n        TransferHelper.safeTransfer(token, to, IERC20(token).balanceOf(address(this)));\n        IWETH(_WETH).withdraw(amountETH);\n        TransferHelper.safeTransferETH(to, amountETH);\n    }\n    function removeLiquidityETHWithPermitSupportingFeeOnTransferTokens(\n        address token,\n        uint liquidity,\n        uint amountTokenMin,\n        uint amountETHMin,\n        address to,\n        uint deadline,\n        bool approveMax, uint8 v, bytes32 r, bytes32 s\n    ) external virtual override returns (uint amountETH) {\n        address pair = AuraLibrary.pairFor(_factory, token, _WETH);\n        uint value = approveMax ? type(uint).max : liquidity;\n        AuraPair(pair).permit(msg.sender, address(this), value, deadline, v, r, s);\n        amountETH = removeLiquidityETHSupportingFeeOnTransferTokens(\n            token, liquidity, amountTokenMin, amountETHMin, to, deadline\n        );\n    }\n\n    // **** SWAP ****\n    // requires the initial amount to have already been sent to the first pair\n    function _swap(uint[] memory amounts, address[] memory path, address _to) internal virtual {\n        for (uint i; i < path.length - 1; i++) {\n            (address input, address output) = (path[i], path[i + 1]);\n            (address token0,) = AuraLibrary.sortTokens(input, output);\n            uint amountOut = amounts[i + 1];\n            (uint amount0Out, uint amount1Out) = input == token0 ? (uint(0), amountOut) : (amountOut, uint(0));\n            if (swapFeeReward != address(0)) {\n                IAuraSwapFeeReward(swapFeeReward).swap(msg.sender, input, output, amountOut);\n            }\n            address to = i < path.length - 2 ? AuraLibrary.pairFor(_factory, output, path[i + 2]) : _to;\n            AuraPair(AuraLibrary.pairFor(_factory, input, output)).swap(\n                amount0Out, amount1Out, to, new bytes(0)\n            );\n        }\n    }\n    function swapExactTokensForTokens(\n        uint amountIn,\n        uint amountOutMin,\n        address[] calldata path,\n        address to,\n        uint deadline\n    ) external virtual override ensure(deadline) returns (uint[] memory amounts) {\n        amounts = AuraLibrary.getAmountsOut(_factory, amountIn, path);\n        require(amounts[amounts.length - 1] >= amountOutMin, 'AuraRouterV1: INSUFFICIENT_OUTPUT_AMOUNT');\n        TransferHelper.safeTransferFrom(\n            path[0], msg.sender, AuraLibrary.pairFor(_factory, path[0], path[1]), amounts[0]\n        );\n        _swap(amounts, path, to);\n    }\n    function swapTokensForExactTokens(\n        uint amountOut,\n        uint amountInMax,\n        address[] calldata path,\n        address to,\n        uint deadline\n    ) external virtual override ensure(deadline) returns (uint[] memory amounts) {\n        amounts = AuraLibrary.getAmountsIn(_factory, amountOut, path);\n        require(amounts[0] <= amountInMax, 'AuraRouterV1: EXCESSIVE_INPUT_AMOUNT');\n        TransferHelper.safeTransferFrom(\n            path[0], msg.sender, AuraLibrary.pairFor(_factory, path[0], path[1]), amounts[0]\n        );\n        _swap(amounts, path, to);\n    }\n    function swapExactETHForTokens(uint amountOutMin, address[] calldata path, address to, uint deadline)\n        external\n        virtual\n        override\n        payable\n        ensure(deadline)\n        returns (uint[] memory amounts)\n    {\n        require(path[0] == _WETH, 'AuraRouterV1: INVALID_PATH');\n        amounts = AuraLibrary.getAmountsOut(_factory, msg.value, path);\n        require(amounts[amounts.length - 1] >= amountOutMin, 'AuraRouterV1: INSUFFICIENT_OUTPUT_AMOUNT');\n        IWETH(_WETH).deposit{value: amounts[0]}();\n        assert(IWETH(_WETH).transfer(AuraLibrary.pairFor(_factory, path[0], path[1]), amounts[0]));\n        _swap(amounts, path, to);\n    }\n    function swapTokensForExactETH(uint amountOut, uint amountInMax, address[] calldata path, address to, uint deadline)\n        external\n        virtual\n        override\n        ensure(deadline)\n        returns (uint[] memory amounts)\n    {\n        require(path[path.length - 1] == _WETH, 'AuraRouterV1: INVALID_PATH');\n        amounts = AuraLibrary.getAmountsIn(_factory, amountOut, path);\n        require(amounts[0] <= amountInMax, 'AuraRouterV1: EXCESSIVE_INPUT_AMOUNT');\n        TransferHelper.safeTransferFrom(\n            path[0], msg.sender, AuraLibrary.pairFor(_factory, path[0], path[1]), amounts[0]\n        );\n        _swap(amounts, path, address(this));\n        IWETH(_WETH).withdraw(amounts[amounts.length - 1]);\n        TransferHelper.safeTransferETH(to, amounts[amounts.length - 1]);\n    }\n    function swapExactTokensForETH(uint amountIn, uint amountOutMin, address[] calldata path, address to, uint deadline)\n        external\n        virtual\n        override\n        ensure(deadline)\n        returns (uint[] memory amounts)\n    {\n        require(path[path.length - 1] == _WETH, 'AuraRouterV1: INVALID_PATH');\n        amounts = AuraLibrary.getAmountsOut(_factory, amountIn, path);\n        require(amounts[amounts.length - 1] >= amountOutMin, 'AuraRouterV1: INSUFFICIENT_OUTPUT_AMOUNT');\n        TransferHelper.safeTransferFrom(\n            path[0], msg.sender, AuraLibrary.pairFor(_factory, path[0], path[1]), amounts[0]\n        );\n        _swap(amounts, path, address(this));\n        IWETH(_WETH).withdraw(amounts[amounts.length - 1]);\n        TransferHelper.safeTransferETH(to, amounts[amounts.length - 1]);\n    }\n    function swapETHForExactTokens(uint amountOut, address[] calldata path, address to, uint deadline)\n        external\n        virtual\n        override\n        payable\n        ensure(deadline)\n        returns (uint[] memory amounts)\n    {\n        require(path[0] == _WETH, 'AuraRouterV1: INVALID_PATH');\n        amounts = AuraLibrary.getAmountsIn(_factory, amountOut, path);\n        require(amounts[0] <= msg.value, 'AuraRouterV1: EXCESSIVE_INPUT_AMOUNT');\n        IWETH(_WETH).deposit{value: amounts[0]}();\n        assert(IWETH(_WETH).transfer(AuraLibrary.pairFor(_factory, path[0], path[1]), amounts[0]));\n        _swap(amounts, path, to);\n        // refund dust eth, if any\n        if (msg.value > amounts[0]) TransferHelper.safeTransferETH(msg.sender, msg.value - amounts[0]);\n    }\n\n    // **** SWAP (supporting fee-on-transfer tokens) ****\n    // requires the initial amount to have already been sent to the first pair\n    function _swapSupportingFeeOnTransferTokens(address[] memory path, address _to) internal virtual {\n        for (uint i; i < path.length - 1; i++) {\n            (address input, address output) = (path[i], path[i + 1]);\n            (address token0,) = AuraLibrary.sortTokens(input, output);\n            AuraPair pair = AuraPair(AuraLibrary.pairFor(_factory, input, output));\n            uint amountInput;\n            uint amountOutput;\n            { // scope to avoid stack too deep errors\n            (uint reserve0, uint reserve1,) = pair.getReserves();\n            (uint reserveInput, uint reserveOutput) = input == token0 ? (reserve0, reserve1) : (reserve1, reserve0);\n            amountInput = IERC20(input).balanceOf(address(pair)) - reserveInput;\n            amountOutput = AuraLibrary.getAmountOut(amountInput, reserveInput, reserveOutput, pair.swapFee());\n            }\n            if (swapFeeReward != address(0)) {\n                IAuraSwapFeeReward(swapFeeReward).swap(msg.sender, input, output, amountOutput);\n            }\n            (uint amount0Out, uint amount1Out) = input == token0 ? (uint(0), amountOutput) : (amountOutput, uint(0));\n            address to = i < path.length - 2 ? AuraLibrary.pairFor(_factory, output, path[i + 2]) : _to;\n            pair.swap(amount0Out, amount1Out, to, new bytes(0));\n        }\n    }\n    function swapExactTokensForTokensSupportingFeeOnTransferTokens(\n        uint amountIn,\n        uint amountOutMin,\n        address[] calldata path,\n        address to,\n        uint deadline\n    ) external virtual override ensure(deadline) {\n        TransferHelper.safeTransferFrom(\n            path[0], msg.sender, AuraLibrary.pairFor(_factory, path[0], path[1]), amountIn\n        );\n        uint balanceBefore = IERC20(path[path.length - 1]).balanceOf(to);\n        _swapSupportingFeeOnTransferTokens(path, to);\n        require(\n            IERC20(path[path.length - 1]).balanceOf(to) - balanceBefore >= amountOutMin,\n            'AuraRouterV1: INSUFFICIENT_OUTPUT_AMOUNT'\n        );\n    }\n    function swapExactETHForTokensSupportingFeeOnTransferTokens(\n        uint amountOutMin,\n        address[] calldata path,\n        address to,\n        uint deadline\n    )\n        external\n        virtual\n        override\n        payable\n        ensure(deadline)\n    {\n        require(path[0] == _WETH, 'AuraRouterV1: INVALID_PATH');\n        uint amountIn = msg.value;\n        IWETH(_WETH).deposit{value: amountIn}();\n        assert(IWETH(_WETH).transfer(AuraLibrary.pairFor(_factory, path[0], path[1]), amountIn));\n        uint balanceBefore = IERC20(path[path.length - 1]).balanceOf(to);\n        _swapSupportingFeeOnTransferTokens(path, to);\n        require(\n            IERC20(path[path.length - 1]).balanceOf(to) - balanceBefore >= amountOutMin,\n            'AuraRouterV1: INSUFFICIENT_OUTPUT_AMOUNT'\n        );\n    }\n    function swapExactTokensForETHSupportingFeeOnTransferTokens(\n        uint amountIn,\n        uint amountOutMin,\n        address[] calldata path,\n        address to,\n        uint deadline\n    )\n        external\n        virtual\n        override\n        ensure(deadline)\n    {\n        require(path[path.length - 1] == _WETH, 'AuraRouterV1: INVALID_PATH');\n        TransferHelper.safeTransferFrom(\n            path[0], msg.sender, AuraLibrary.pairFor(_factory, path[0], path[1]), amountIn\n        );\n        _swapSupportingFeeOnTransferTokens(path, address(this));\n        uint amountOut = IERC20(_WETH).balanceOf(address(this));\n        require(amountOut >= amountOutMin, 'AuraRouterV1: INSUFFICIENT_OUTPUT_AMOUNT');\n        IWETH(_WETH).withdraw(amountOut);\n        TransferHelper.safeTransferETH(to, amountOut);\n    }\n\n    // **** LIBRARY FUNCTIONS ****\n    function quote(uint amountA, uint reserveA, uint reserveB) public pure virtual override returns (uint amountB) {\n        return AuraLibrary.quote(amountA, reserveA, reserveB);\n    }\n\n    function getAmountOut(uint amountIn, uint reserveIn, uint reserveOut, uint swapFee)\n        public\n        pure\n        virtual\n        returns (uint amountOut)\n    {\n        return AuraLibrary.getAmountOut(amountIn, reserveIn, reserveOut, swapFee);\n    }\n\n    function getAmountOut(uint amountIn, uint reserveIn, uint reserveOut)\n        external\n        pure\n        virtual\n        override\n        returns (uint amountOut)\n    {\n        return AuraLibrary.getAmountOut(amountIn, reserveIn, reserveOut, /*swapFee=*/0);\n    }\n\n    function getAmountIn(uint amountOut, uint reserveIn, uint reserveOut, uint swapFee)\n        public\n        pure\n        virtual\n        returns (uint amountIn)\n    {\n        return AuraLibrary.getAmountIn(amountOut, reserveIn, reserveOut, swapFee);\n    }\n\n    function getAmountIn(uint amountOut, uint reserveIn, uint reserveOut)\n    public\n    pure\n    virtual\n    override\n    returns (uint amountIn)\n    {\n        return AuraLibrary.getAmountIn(amountOut, reserveIn, reserveOut, /*swapFee=*/0);\n    }\n\n    function getAmountsOut(uint amountIn, address[] memory path)\n        public\n        view\n        virtual\n        override\n        returns (uint[] memory amounts)\n    {\n        return AuraLibrary.getAmountsOut(_factory, amountIn, path);\n    }\n\n    function getAmountsIn(uint amountOut, address[] memory path)\n        external\n        view\n        virtual\n        override\n        returns (uint[] memory amounts)\n    {\n        return AuraLibrary.getAmountsIn(_factory, amountOut, path);\n    }\n}\n",
  "sourcePath": "/Users/ericboris/Developer/aura/contracts/swaps/AuraRouterV1.sol",
  "compiler": {
    "name": "solc",
    "version": "0.8.10+commit.fc410830.Emscripten.clang"
  },
  "schemaVersion": "3.4.4",
  "updatedAt": "2022-01-26T18:43:57.737Z",
  "devdoc": {
    "kind": "dev",
    "methods": {
      "owner()": {
        "details": "Returns the address of the current owner."
      },
      "renounceOwnership()": {
        "details": "Leaves the contract without owner. It will not be possible to call `onlyOwner` functions anymore. Can only be called by the current owner. NOTE: Renouncing ownership will leave the contract without an owner, thereby removing any functionality that is only available to the owner."
      },
      "transferOwnership(address)": {
        "details": "Transfers ownership of the contract to a new account (`newOwner`). Can only be called by the current owner."
      }
    },
    "version": 1
  },
  "userdoc": {
    "kind": "user",
    "methods": {},
    "version": 1
  }
}